{
  "contractName": "BillOfLadingRequest",
  "abi": [
    {
      "inputs": [],
      "stateMutability": "nonpayable",
      "type": "constructor"
    },
    {
      "anonymous": false,
      "inputs": [
        {
          "indexed": true,
          "internalType": "bytes32",
          "name": "id",
          "type": "bytes32"
        }
      ],
      "name": "ChainlinkCancelled",
      "type": "event"
    },
    {
      "anonymous": false,
      "inputs": [
        {
          "indexed": true,
          "internalType": "bytes32",
          "name": "id",
          "type": "bytes32"
        }
      ],
      "name": "ChainlinkFulfilled",
      "type": "event"
    },
    {
      "anonymous": false,
      "inputs": [
        {
          "indexed": true,
          "internalType": "bytes32",
          "name": "id",
          "type": "bytes32"
        }
      ],
      "name": "ChainlinkRequested",
      "type": "event"
    },
    {
      "inputs": [],
      "name": "is_Valid",
      "outputs": [
        {
          "internalType": "bool",
          "name": "",
          "type": "bool"
        }
      ],
      "stateMutability": "view",
      "type": "function"
    },
    {
      "inputs": [],
      "name": "risk_reduction",
      "outputs": [
        {
          "internalType": "uint256",
          "name": "",
          "type": "uint256"
        }
      ],
      "stateMutability": "view",
      "type": "function"
    },
    {
      "inputs": [],
      "name": "requestBillOfLading",
      "outputs": [
        {
          "internalType": "bytes32",
          "name": "requestId",
          "type": "bytes32"
        }
      ],
      "stateMutability": "nonpayable",
      "type": "function"
    },
    {
      "inputs": [
        {
          "internalType": "bytes32",
          "name": "_requestId",
          "type": "bytes32"
        },
        {
          "internalType": "bool",
          "name": "_returnData",
          "type": "bool"
        }
      ],
      "name": "fulfill",
      "outputs": [],
      "stateMutability": "nonpayable",
      "type": "function"
    }
  ],
  "bytecode": "0x6080604052600160045534801561001557600080fd5b506100246100b460201b60201c565b73aa1dc356dc4b18f30c347798fd5379f3d77abc5b600860006101000a81548173ffffffffffffffffffffffffffffffffffffffff021916908373ffffffffffffffffffffffffffffffffffffffff1602179055507f366239623162613263656661343039326236643031633732363234633230316660098190555067016345785d8a0000600a8190555061019d565b61015773c89bd4e1632d3a43cb03aaad5262cbe4038bc57173ffffffffffffffffffffffffffffffffffffffff166338cc48316040518163ffffffff1660e01b815260040160206040518083038186803b15801561011157600080fd5b505afa158015610125573d6000803e3d6000fd5b505050506040513d602081101561013b57600080fd5b810190808051906020019092919050505061015960201b60201c565b565b80600260006101000a81548173ffffffffffffffffffffffffffffffffffffffff021916908373ffffffffffffffffffffffffffffffffffffffff16021790555050565b610db6806101ac6000396000f3fe608060405234801561001057600080fd5b506004361061004c5760003560e01c806366023a0e146100515780637b911a731461006f578063aecdc3fa1461008f578063fd68990a146100ad575b600080fd5b6100596100e7565b6040518082815260200191505060405180910390f35b6100776100ed565b60405180821515815260200191505060405180910390f35b610097610100565b6040518082815260200191505060405180910390f35b6100e5600480360360408110156100c357600080fd5b8101908080359060200190929190803515159060200190929190505050610236565b005b60075481565b600660009054906101000a900460ff1681565b600061010a610c83565b61011e6009543063fd68990a60e01b61039b565b90506101826040518060400160405280600481526020017f706f7374000000000000000000000000000000000000000000000000000000008152506040518060600160405280602b8152602001610d56602b9139836103cc9092919063ffffffff16565b6102016040518060400160405280600481526020017f70617468000000000000000000000000000000000000000000000000000000008152506040518060400160405280600781526020017f697356616c696400000000000000000000000000000000000000000000000000815250836103cc9092919063ffffffff16565b610230600860009054906101000a900473ffffffffffffffffffffffffffffffffffffffff1682600a546103ff565b91505090565b816005600082815260200190815260200160002060009054906101000a900473ffffffffffffffffffffffffffffffffffffffff1673ffffffffffffffffffffffffffffffffffffffff163373ffffffffffffffffffffffffffffffffffffffff16146102ee576040517f08c379a0000000000000000000000000000000000000000000000000000000008152600401808060200182810382526028815260200180610d2e6028913960400191505060405180910390fd5b6005600082815260200190815260200160002060006101000a81549073ffffffffffffffffffffffffffffffffffffffff0219169055807f7cc135e0cebb02c3480ae5d74d377283180a2601f8f644edf7987b009316c63a60405160405180910390a281600660006101000a81548160ff021916908315150217905550600660009054906101000a900460ff161561038d576014600781905550610396565b60006007819055505b505050565b6103a3610c83565b6103ab610c83565b6103c285858584610688909392919063ffffffff16565b9150509392505050565b6103e382846080015161073890919063ffffffff16565b6103fa81846080015161073890919063ffffffff16565b505050565b600030600454604051602001808373ffffffffffffffffffffffffffffffffffffffff1660601b815260140182815260200192505050604051602081830303815290604052805190602001209050600454836060018181525050836005600083815260200190815260200160002060006101000a81548173ffffffffffffffffffffffffffffffffffffffff021916908373ffffffffffffffffffffffffffffffffffffffff160217905550807fb5e6e01e79f91267dc17b4e6314d5d4d03593d2ceee0fbb452b750bd70ea5af960405160405180910390a2600260009054906101000a900473ffffffffffffffffffffffffffffffffffffffff1673ffffffffffffffffffffffffffffffffffffffff16634000aea085846105218761075d565b6040518463ffffffff1660e01b8152600401808473ffffffffffffffffffffffffffffffffffffffff16815260200183815260200180602001828103825283818151815260200191508051906020019080838360005b83811015610592578082015181840152602081019050610577565b50505050905090810190601f1680156105bf5780820380516001836020036101000a031916815260200191505b50945050505050602060405180830381600087803b1580156105e057600080fd5b505af11580156105f4573d6000803e3d6000fd5b505050506040513d602081101561060a57600080fd5b8101908080519060200190929190505050610670576040517f08c379a0000000000000000000000000000000000000000000000000000000008152600401808060200182810382526023815260200180610d0b6023913960400191505060405180910390fd5b60016004600082825401925050819055509392505050565b610690610c83565b6106a085608001516101006108de565b508385600001818152505082856020019073ffffffffffffffffffffffffffffffffffffffff16908173ffffffffffffffffffffffffffffffffffffffff16815250508185604001907bffffffffffffffffffffffffffffffffffffffffffffffffffffffff191690817bffffffffffffffffffffffffffffffffffffffffffffffffffffffff191681525050849050949350505050565b6107458260038351610932565b6107588183610a7790919063ffffffff16565b505050565b6060634042994660e01b60008084600001518560200151866040015187606001516001896080015160000151604051602401808973ffffffffffffffffffffffffffffffffffffffff1681526020018881526020018781526020018673ffffffffffffffffffffffffffffffffffffffff168152602001857bffffffffffffffffffffffffffffffffffffffffffffffffffffffff1916815260200184815260200183815260200180602001828103825283818151815260200191508051906020019080838360005b83811015610841578082015181840152602081019050610826565b50505050905090810190601f16801561086e5780820380516001836020036101000a031916815260200191505b509950505050505050505050604051602081830303815290604052907bffffffffffffffffffffffffffffffffffffffffffffffffffffffff19166020820180517bffffffffffffffffffffffffffffffffffffffffffffffffffffffff83818316178352505050509050919050565b6108e6610cf0565b6000602083816108f257fe5b061461090b576020828161090257fe5b06602003820191505b81836020018181525050604051808452600081528281016020016040525082905092915050565b6017811161095f576109598160058460ff16901b60ff161784610a9990919063ffffffff16565b50610a72565b60ff81116109a157610984601860058460ff16901b1784610a9990919063ffffffff16565b5061099b81600185610ab99092919063ffffffff16565b50610a71565b61ffff81116109e4576109c7601960058460ff16901b1784610a9990919063ffffffff16565b506109de81600285610ab99092919063ffffffff16565b50610a70565b63ffffffff8111610a2957610a0c601a60058460ff16901b1784610a9990919063ffffffff16565b50610a2381600485610ab99092919063ffffffff16565b50610a6f565b67ffffffffffffffff8111610a6e57610a55601b60058460ff16901b1784610a9990919063ffffffff16565b50610a6c81600885610ab99092919063ffffffff16565b505b5b5b5b5b505050565b610a7f610cf0565b610a9183846000015151848551610adb565b905092915050565b610aa1610cf0565b610ab18384600001515184610b94565b905092915050565b610ac1610cf0565b610ad2848560000151518585610be2565b90509392505050565b610ae3610cf0565b8251821115610af157600080fd5b84602001518285011115610b1c57610b1b856002610b158860200151888701610c43565b02610c5f565b5b600080865180518760208301019350808887011115610b3b5787860182525b60208701925050505b60208410610b675780518252602082019150602081019050602084039350610b44565b60006001856020036101000a03905080198251168184511681811785525050879350505050949350505050565b610b9c610cf0565b83602001518310610bb957610bb8846002866020015102610c5f565b5b8351805160208583010184815381861415610bd5576001820183525b5050508390509392505050565b610bea610cf0565b84602001518483011115610c0857610c0785600286850102610c5f565b5b60006001836101000a0390508551838682010185831982511617815281518588011115610c355784870182525b505085915050949350505050565b600081831115610c5557829050610c59565b8190505b92915050565b606082600001519050610c7283836108de565b50610c7d8382610a77565b50505050565b6040518060a0016040528060008019168152602001600073ffffffffffffffffffffffffffffffffffffffff16815260200160007bffffffffffffffffffffffffffffffffffffffffffffffffffffffff1916815260200160008152602001610cea610cf0565b81525090565b60405180604001604052806060815260200160008152509056fe756e61626c6520746f207472616e73666572416e6443616c6c20746f206f7261636c65536f75726365206d75737420626520746865206f7261636c65206f66207468652072657175657374687474703a2f2f70617969642e74726164653a343030302f7665726966792f62696c6c4f664c6164696e67a264697066735822122044d8322d00d56ef509b2a4e0de15222f750a84b88104a4a4d5ecad363e37d1bf64736f6c634300060c0033",
  "immutableReferences": {},
  "source": "pragma solidity ^0.6.0;\n\nimport \"@chainlink/contracts/src/v0.6/ChainlinkClient.sol\";\n// import \"https://raw.githubusercontent.com/smartcontractkit/chainlink/develop/evm-contracts/src/v0.6/ChainlinkClient.sol\";\n\n\n/// SPDX-License-Identifier: MIT\n\ncontract BillOfLadingRequest is ChainlinkClient {\n\n    bool public is_Valid;\n    uint256 public risk_reduction;\n\n    address private oracle;\n    bytes32 private jobId;\n    uint256 private fee;\n\n\n    constructor() public {\n        setPublicChainlinkToken();\n        oracle = 0xAA1DC356dc4B18f30C347798FD5379F3D77ABC5b;\n        jobId = \"6b9b1ba2cefa4092b6d01c72624c201f\";\n        fee = 0.1 * 10 ** 18; // 0.1 LINK\n    }\n\n\n    function requestBillOfLading() public returns (bytes32 requestId)\n    {\n        Chainlink.Request memory request = buildChainlinkRequest(jobId, address(this), this.fulfill.selector);\n\n        // Set the URL to perform the GET request on\n        request.add(\"post\", \"http://payid.trade:4000/verify/billOfLading\");\n\n        // Set the path to find the desired data in the API response, where the response format is:\n        request.add(\"path\", \"isValid\");\n\n\n        // Sends the request\n        return sendChainlinkRequestTo(oracle, request, fee);\n    }\n\n    /**\n     * Receive the response in the form of uint256\n     */\n    function fulfill(bytes32 _requestId, bool _returnData) public recordChainlinkFulfillment(_requestId)\n    {\n        is_Valid = _returnData;\n        if(is_Valid){\n            risk_reduction = 20;\n        }else{\n            risk_reduction = 0;\n        }\n    }\n\n}\n",
  "sourcePath": "/home/carlos/gitrepos/TrafiGuard/contracts/Tradeora Contracts/BillOfLading.sol",
  "compiler": {
    "name": "solc",
    "version": "0.6.12+commit.27d51765.Emscripten.clang"
  },
  "schemaVersion": "3.2.5",
  "updatedAt": "2020-10-22T06:06:35.268Z",
  "devdoc": {
    "kind": "dev",
    "methods": {},
    "version": 1
  },
  "userdoc": {
    "kind": "user",
    "methods": {
      "fulfill(bytes32,bool)": {
        "notice": "Receive the response in the form of uint256"
      }
    },
    "notice": "SPDX-License-Identifier: MIT",
    "version": 1
  }
}