{
  "contractName": "StoreBloomData",
  "abi": [
    {
      "inputs": [
        {
          "internalType": "string",
          "name": "token",
          "type": "string"
        },
        {
          "internalType": "string",
          "name": "email",
          "type": "string"
        },
        {
          "internalType": "string",
          "name": "phone",
          "type": "string"
        }
      ],
      "name": "setData",
      "outputs": [],
      "stateMutability": "nonpayable",
      "type": "function"
    }
  ],
  "bytecode": "0x608060405234801561001057600080fd5b506103ed806100206000396000f3fe608060405234801561001057600080fd5b506004361061002b5760003560e01c8063280af7d314610030575b600080fd5b6102176004803603606081101561004657600080fd5b810190808035906020019064010000000081111561006357600080fd5b82018360208201111561007557600080fd5b8035906020019184600183028401116401000000008311171561009757600080fd5b91908080601f016020809104026020016040519081016040528093929190818152602001838380828437600081840152601f19601f820116905080830192505050505050509192919290803590602001906401000000008111156100fa57600080fd5b82018360208201111561010c57600080fd5b8035906020019184600183028401116401000000008311171561012e57600080fd5b91908080601f016020809104026020016040519081016040528093929190818152602001838380828437600081840152601f19601f8201169050808301925050505050505091929192908035906020019064010000000081111561019157600080fd5b8201836020820111156101a357600080fd5b803590602001918460018302840111640100000000831117156101c557600080fd5b91908080601f016020809104026020016040519081016040528093929190818152602001838380828437600081840152601f19601f820116905080830192505050505050509192919290505050610219565b005b816000846040518082805190602001908083835b60208310610250578051825260208201915060208101905060208303925061022d565b6001836020036101000a0380198251168184511680821785525050505050509050019150509081526020016040518091039020908051906020019061029692919061031a565b50806001846040518082805190602001908083835b602083106102ce57805182526020820191506020810190506020830392506102ab565b6001836020036101000a0380198251168184511680821785525050505050509050019150509081526020016040518091039020908051906020019061031492919061031a565b50505050565b828054600181600116156101000203166002900490600052602060002090601f016020900481019282601f1061035b57805160ff1916838001178555610389565b82800160010185558215610389579182015b8281111561038857825182559160200191906001019061036d565b5b509050610396919061039a565b5090565b5b808211156103b357600081600090555060010161039b565b509056fea2646970667358221220c1efb2452c4579cbc495925b3cf56d51b4100b7a9c8aed8cf6b543d43465bc6064736f6c634300060c0033",
  "immutableReferences": {},
  "source": "pragma solidity >=0.5.0 <0.8.0;\n\ncontract StoreBloomData {\n\n\tmapping(string => string) emails;\n\tmapping(string => string) phones;\n\n\tfunction setData(string memory token, string memory email, string memory phone) public {\n\t\temails[token] = email;\n\t\tphones[token] = phone;\n\t}\n\n}\n\n// Ropsten: 0xae1C6ef77f425bdF288BA22eC06801Ec7A727a21",
  "sourcePath": "/home/carlos/gitrepos/TrafiGuard/contracts/bloom/StoreBloomData.sol",
  "compiler": {
    "name": "solc",
    "version": "0.6.12+commit.27d51765.Emscripten.clang"
  },
  "schemaVersion": "3.2.5",
  "updatedAt": "2020-10-22T05:34:41.456Z",
  "devdoc": {
    "kind": "dev",
    "methods": {},
    "version": 1
  },
  "userdoc": {
    "kind": "user",
    "methods": {},
    "version": 1
  }
}