{
  "contractName": "Financials",
  "abi": [
    {
      "inputs": [],
      "stateMutability": "nonpayable",
      "type": "constructor"
    },
    {
      "anonymous": false,
      "inputs": [
        {
          "indexed": true,
          "internalType": "bytes32",
          "name": "id",
          "type": "bytes32"
        }
      ],
      "name": "ChainlinkCancelled",
      "type": "event"
    },
    {
      "anonymous": false,
      "inputs": [
        {
          "indexed": true,
          "internalType": "bytes32",
          "name": "id",
          "type": "bytes32"
        }
      ],
      "name": "ChainlinkFulfilled",
      "type": "event"
    },
    {
      "anonymous": false,
      "inputs": [
        {
          "indexed": true,
          "internalType": "bytes32",
          "name": "id",
          "type": "bytes32"
        }
      ],
      "name": "ChainlinkRequested",
      "type": "event"
    },
    {
      "inputs": [],
      "name": "riskReduction",
      "outputs": [
        {
          "internalType": "uint256",
          "name": "",
          "type": "uint256"
        }
      ],
      "stateMutability": "view",
      "type": "function",
      "constant": true
    },
    {
      "inputs": [],
      "name": "evalRiskScore",
      "outputs": [
        {
          "internalType": "bytes32",
          "name": "requestId",
          "type": "bytes32"
        }
      ],
      "stateMutability": "nonpayable",
      "type": "function"
    },
    {
      "inputs": [
        {
          "internalType": "bytes32",
          "name": "_bytes32",
          "type": "bytes32"
        }
      ],
      "name": "bytes32ToBytes",
      "outputs": [
        {
          "internalType": "bytes",
          "name": "",
          "type": "bytes"
        }
      ],
      "stateMutability": "nonpayable",
      "type": "function"
    },
    {
      "inputs": [
        {
          "internalType": "bytes32",
          "name": "_bytes32",
          "type": "bytes32"
        }
      ],
      "name": "bytes32ToString",
      "outputs": [
        {
          "internalType": "string",
          "name": "",
          "type": "string"
        }
      ],
      "stateMutability": "nonpayable",
      "type": "function"
    },
    {
      "inputs": [
        {
          "internalType": "bytes32",
          "name": "_requestId",
          "type": "bytes32"
        },
        {
          "internalType": "uint256",
          "name": "_returnData",
          "type": "uint256"
        }
      ],
      "name": "fulfill",
      "outputs": [],
      "stateMutability": "nonpayable",
      "type": "function"
    }
  ],
  "bytecode": "0x6080604052600160045534801561001557600080fd5b506100246100b460201b60201c565b7356dd6586db0d08c6ce7b2f2805af28616e082455600760006101000a81548173ffffffffffffffffffffffffffffffffffffffff021916908373ffffffffffffffffffffffffffffffffffffffff1602179055507f623636303264313465343733346334396135653163653139643435613436333260088190555067016345785d8a000060098190555061019d565b61015773c89bd4e1632d3a43cb03aaad5262cbe4038bc57173ffffffffffffffffffffffffffffffffffffffff166338cc48316040518163ffffffff1660e01b815260040160206040518083038186803b15801561011157600080fd5b505afa158015610125573d6000803e3d6000fd5b505050506040513d602081101561013b57600080fd5b810190808051906020019092919050505061015960201b60201c565b565b80600260006101000a81548173ffffffffffffffffffffffffffffffffffffffff021916908373ffffffffffffffffffffffffffffffffffffffff16021790555050565b610fa7806101ac6000396000f3fe608060405234801561001057600080fd5b50600436106100575760003560e01c80634357855e1461005c5780634c0999c7146100945780639201de551461013b578063c29217c0146101e2578063d3d0bc4014610200575b600080fd5b6100926004803603604081101561007257600080fd5b81019080803590602001909291908035906020019092919050505061021e565b005b6100c0600480360360208110156100aa57600080fd5b8101908080359060200190929190505050610345565b6040518080602001828103825283818151815260200191508051906020019080838360005b838110156101005780820151818401526020810190506100e5565b50505050905090810190601f16801561012d5780820380516001836020036101000a031916815260200191505b509250505060405180910390f35b6101676004803603602081101561015157600080fd5b8101908080359060200190929190505050610404565b6040518080602001828103825283818151815260200191508051906020019080838360005b838110156101a757808201518184015260208101905061018c565b50505050905090810190601f1680156101d45780820380516001836020036101000a031916815260200191505b509250505060405180910390f35b6101ea61041b565b6040518082815260200191505060405180910390f35b610208610421565b6040518082815260200191505060405180910390f35b816005600082815260200190815260200160002060009054906101000a900473ffffffffffffffffffffffffffffffffffffffff1673ffffffffffffffffffffffffffffffffffffffff163373ffffffffffffffffffffffffffffffffffffffff16146102d6576040517f08c379a0000000000000000000000000000000000000000000000000000000008152600401808060200182810382526028815260200180610f4a6028913960400191505060405180910390fd5b6005600082815260200190815260200160002060006101000a81549073ffffffffffffffffffffffffffffffffffffffff0219169055807f7cc135e0cebb02c3480ae5d74d377283180a2601f8f644edf7987b009316c63a60405160405180910390a281600681905550505050565b606080602067ffffffffffffffff8111801561036057600080fd5b506040519080825280601f01601f1916602001820160405280156103935781602001600182028036833780820191505090505b50905060005b60208110156103fa578381602081106103ae57fe5b1a60f81b8282815181106103be57fe5b60200101907effffffffffffffffffffffffffffffffffffffffffffffffffffffffffffff1916908160001a9053508080600101915050610399565b5080915050919050565b60608061041083610345565b905080915050919050565b60065481565b600061042b610e3f565b61043f60085430634357855e60e01b610557565b90506104a36040518060400160405280600381526020017f6765740000000000000000000000000000000000000000000000000000000000815250604051806080016040528060608152602001610eea60609139836105889092919063ffffffff16565b6105226040518060400160405280600481526020017f70617468000000000000000000000000000000000000000000000000000000008152506040518060400160405280600d81526020017f5269736b526564756374696f6e00000000000000000000000000000000000000815250836105889092919063ffffffff16565b610551600760009054906101000a900473ffffffffffffffffffffffffffffffffffffffff16826009546105bb565b91505090565b61055f610e3f565b610567610e3f565b61057e85858584610844909392919063ffffffff16565b9150509392505050565b61059f8284608001516108f490919063ffffffff16565b6105b68184608001516108f490919063ffffffff16565b505050565b600030600454604051602001808373ffffffffffffffffffffffffffffffffffffffff1660601b815260140182815260200192505050604051602081830303815290604052805190602001209050600454836060018181525050836005600083815260200190815260200160002060006101000a81548173ffffffffffffffffffffffffffffffffffffffff021916908373ffffffffffffffffffffffffffffffffffffffff160217905550807fb5e6e01e79f91267dc17b4e6314d5d4d03593d2ceee0fbb452b750bd70ea5af960405160405180910390a2600260009054906101000a900473ffffffffffffffffffffffffffffffffffffffff1673ffffffffffffffffffffffffffffffffffffffff16634000aea085846106dd87610919565b6040518463ffffffff1660e01b8152600401808473ffffffffffffffffffffffffffffffffffffffff16815260200183815260200180602001828103825283818151815260200191508051906020019080838360005b8381101561074e578082015181840152602081019050610733565b50505050905090810190601f16801561077b5780820380516001836020036101000a031916815260200191505b50945050505050602060405180830381600087803b15801561079c57600080fd5b505af11580156107b0573d6000803e3d6000fd5b505050506040513d60208110156107c657600080fd5b810190808051906020019092919050505061082c576040517f08c379a0000000000000000000000000000000000000000000000000000000008152600401808060200182810382526023815260200180610ec76023913960400191505060405180910390fd5b60016004600082825401925050819055509392505050565b61084c610e3f565b61085c8560800151610100610a9a565b508385600001818152505082856020019073ffffffffffffffffffffffffffffffffffffffff16908173ffffffffffffffffffffffffffffffffffffffff16815250508185604001907bffffffffffffffffffffffffffffffffffffffffffffffffffffffff191690817bffffffffffffffffffffffffffffffffffffffffffffffffffffffff191681525050849050949350505050565b6109018260038351610aee565b6109148183610c3390919063ffffffff16565b505050565b6060634042994660e01b60008084600001518560200151866040015187606001516001896080015160000151604051602401808973ffffffffffffffffffffffffffffffffffffffff1681526020018881526020018781526020018673ffffffffffffffffffffffffffffffffffffffff168152602001857bffffffffffffffffffffffffffffffffffffffffffffffffffffffff1916815260200184815260200183815260200180602001828103825283818151815260200191508051906020019080838360005b838110156109fd5780820151818401526020810190506109e2565b50505050905090810190601f168015610a2a5780820380516001836020036101000a031916815260200191505b509950505050505050505050604051602081830303815290604052907bffffffffffffffffffffffffffffffffffffffffffffffffffffffff19166020820180517bffffffffffffffffffffffffffffffffffffffffffffffffffffffff83818316178352505050509050919050565b610aa2610eac565b600060208381610aae57fe5b0614610ac75760208281610abe57fe5b06602003820191505b81836020018181525050604051808452600081528281016020016040525082905092915050565b60178111610b1b57610b158160058460ff16901b60ff161784610c5590919063ffffffff16565b50610c2e565b60ff8111610b5d57610b40601860058460ff16901b1784610c5590919063ffffffff16565b50610b5781600185610c759092919063ffffffff16565b50610c2d565b61ffff8111610ba057610b83601960058460ff16901b1784610c5590919063ffffffff16565b50610b9a81600285610c759092919063ffffffff16565b50610c2c565b63ffffffff8111610be557610bc8601a60058460ff16901b1784610c5590919063ffffffff16565b50610bdf81600485610c759092919063ffffffff16565b50610c2b565b67ffffffffffffffff8111610c2a57610c11601b60058460ff16901b1784610c5590919063ffffffff16565b50610c2881600885610c759092919063ffffffff16565b505b5b5b5b5b505050565b610c3b610eac565b610c4d83846000015151848551610c97565b905092915050565b610c5d610eac565b610c6d8384600001515184610d50565b905092915050565b610c7d610eac565b610c8e848560000151518585610d9e565b90509392505050565b610c9f610eac565b8251821115610cad57600080fd5b84602001518285011115610cd857610cd7856002610cd18860200151888701610dff565b02610e1b565b5b600080865180518760208301019350808887011115610cf75787860182525b60208701925050505b60208410610d235780518252602082019150602081019050602084039350610d00565b60006001856020036101000a03905080198251168184511681811785525050879350505050949350505050565b610d58610eac565b83602001518310610d7557610d74846002866020015102610e1b565b5b8351805160208583010184815381861415610d91576001820183525b5050508390509392505050565b610da6610eac565b84602001518483011115610dc457610dc385600286850102610e1b565b5b60006001836101000a0390508551838682010185831982511617815281518588011115610df15784870182525b505085915050949350505050565b600081831115610e1157829050610e15565b8190505b92915050565b606082600001519050610e2e8383610a9a565b50610e398382610c33565b50505050565b6040518060a0016040528060008019168152602001600073ffffffffffffffffffffffffffffffffffffffff16815260200160007bffffffffffffffffffffffffffffffffffffffffffffffffffffffff1916815260200160008152602001610ea6610eac565b81525090565b60405180604001604052806060815260200160008152509056fe756e61626c6520746f207472616e73666572416e6443616c6c20746f206f7261636c65687474703a2f2f70617969642e74726164653a343030302f66696e616e6369616c733f706f72744f664f726967696e3d4d756d62616926706f72744f6644657374696e6174696f6e3d4e6577596f726b266c6f616e4475726174696f6e3d3330536f75726365206d75737420626520746865206f7261636c65206f66207468652072657175657374a2646970667358221220fc7773c11238e92d2cf60a1c21d4542c21d290691213ab9fd01e2a7372acbf9664736f6c634300060c0033",
  "immutableReferences": {},
  "source": "pragma solidity ^0.6.0;\n\nimport \"@chainlink/contracts/src/v0.6/ChainlinkClient.sol\";\n// import \"https://raw.githubusercontent.com/smartcontractkit/chainlink/develop/evm-contracts/src/v0.6/ChainlinkClient.sol\";\n\n\ncontract Financials is ChainlinkClient {\n\n\tuint256 public riskReduction;\n\n\taddress private oracle;\n\tbytes32 private jobId;\n\tuint256 private fee;\n\n\t/**\n\t\tOracle on Kovan for Get request bytes32\n\t\t*/\n\tconstructor() public {\n\t\tsetPublicChainlinkToken();\n\t\toracle = 0x56dd6586DB0D08c6Ce7B2f2805af28616E082455;\n\t\tjobId = \"b6602d14e4734c49a5e1ce19d45a4632\";\n\t\tfee = 0.1 * 10 ** 18; // 0.1 LINK\n\t}\n\n\t/**\n\t\t* Create a Chainlink request to retrieve API response, find the target data,\n\t\t* At Path\n\t\t*/\n\tfunction evalRiskScore()\n\tpublic returns (bytes32 requestId)\n\t{\n\t\tChainlink.Request memory request = buildChainlinkRequest(jobId, address(this), this.fulfill.selector);\n\t\trequest.add(\"get\", \"http://payid.trade:4000/financials?portOfOrigin=Mumbai&portOfDestination=NewYork&loanDuration=30\");\n\t\trequest.add(\"path\", \"RiskReduction\");\n\t\treturn sendChainlinkRequestTo(oracle, request, fee);\n\t}\n\n\t/**\n\t\t* Receive the response in the form of bytes32\n\t\t*/\n\n\tfunction bytes32ToBytes(bytes32 _bytes32)\n\tpublic returns (bytes memory){\n\t\tbytes memory bytesArray = new bytes(32);\n\t\tfor (uint256 i; i < 32; i++) {\n\t\t\tbytesArray[i] = _bytes32[i];\n\t\t}\n\t\treturn bytesArray;\n\t}\n\n\tfunction bytes32ToString(bytes32 _bytes32)\n\tpublic returns (string memory){\n\t\t\tbytes memory bytesArray = bytes32ToBytes(_bytes32);\n\t\t\treturn string(bytesArray);\n\t}\n\n\tfunction fulfill(bytes32 _requestId, uint256 _returnData)\n\tpublic recordChainlinkFulfillment(_requestId)\n\t{\n\t\t\triskReduction = _returnData;\n\t}\n\n}\n// /*\n// contract AuditDateAPIConsumer is ChainlinkClient {\n\n\n//     string public auditDate;\n\n//     address private oracle;\n//     bytes32 private jobId;\n//     uint256 private fee;\n\n//     /**\n//      Oracle on Kovan for Get request bytes32\n//      */\n//     constructor() public {\n//         setPublicChainlinkToken();\n//         oracle = 0x56dd6586DB0D08c6Ce7B2f2805af28616E082455;\n//         jobId = \"c128fbb0175442c8ba828040fdd1a25e\";\n//         fee = 0.1 * 10 ** 18; // 0.1 LINK\n//     }\n\n//     /**\n//      * Create a Chainlink request to retrieve API response, find the target data\n//      */\n//     function requestAuditDate() public returns (bytes32 requestId)\n//     {\n//         Chainlink.Request memory request = buildChainlinkRequest(jobId, address(this), this.fulfill.selector);\n\n//         // Set the URL to perform the GET request on\n//         request.add(\"get\", \"http://payid.trade:4000/fetchIncomeTaxReturns/fromDate/16-08-2020/toDate/19-08-2020/pan/000\");\n\n//         // Set the path to find the desired data in the API response, where the response format is:\n\n//         request.add(\"path\", \"ITR3.AuditInfo.AuditDate\");\n\n\n//         // Sends the request\n//         return sendChainlinkRequestTo(oracle, request, fee);\n//     }\n\n//     /**\n//      * Receive the response in the form of bytes32\n//      */\n//     function fulfill(bytes32 _requestId, bytes32 _returnData) public recordChainlinkFulfillment(_requestId)\n//     {\n//         auditDate = bytes32ToString(_returnData);\n//     }\n\n//      function bytes32ToBytes(bytes32 _bytes32) public returns (bytes memory){\n//         // string memory str = string(_bytes32);\n//         // TypeError: Explicit type conversion not allowed from \"bytes32\" to \"string storage pointer\"\n//         bytes memory bytesArray = new bytes(32);\n//         for (uint256 i; i < 32; i++) {\n//             bytesArray[i] = _bytes32[i];\n//         }\n//         return bytesArray;\n//     }//\n\n//     function bytes32ToString(bytes32 _bytes32) public returns (string memory){\n//         bytes memory bytesArray = bytes32ToBytes(_bytes32);\n//         return string(bytesArray);\n//     }//\n\n// }\n\n// contract TradeNameAPIConsumer is ChainlinkClient {\n\n\n//     string public tradeName;\n\n//     address private oracle;\n//     bytes32 private jobId;\n//     uint256 private fee;\n\n//     /**\n//      * Kovan Oracle\n//      */\n//     constructor() public {\n//         setPublicChainlinkToken();\n//         oracle = 0x56dd6586DB0D08c6Ce7B2f2805af28616E082455;\n//         jobId = \"c128fbb0175442c8ba828040fdd1a25e\";\n//         fee = 0.1 * 10 ** 18; // 0.1 LINK\n//     }\n\n//     /**\n//      * Create a Chainlink request to retrieve API response, find the target\n//      */\n//     function requestTradeName() public returns (bytes32 requestId)\n//     {\n//         Chainlink.Request memory request = buildChainlinkRequest(jobId, address(this), this.fulfill.selector);\n\n//         // Set the URL to perform the GET request on\n//         request.add(\"get\", \"http://payid.trade:4000/fetchIncomeTaxReturns/fromDate/16-08-2020/toDate/19-08-2020/pan/000\");\n\n//         // Set the path to find the desired data in the API response, where the response format is:\n\n//         request.add(\"path\", \"ITR3.NatOfBus.NatureOfBusiness.TradeName1\");\n\n\n//         // Sends the request\n//         return sendChainlinkRequestTo(oracle, request, fee);\n//     }\n\n//     /**\n//      * Receive the response in the form of bytes32\n//      */\n//     function fulfill(bytes32 _requestId, bytes32 _returnData) public recordChainlinkFulfillment(_requestId)\n//     {\n//         tradeName = bytes32ToString(_returnData);\n//     }\n\n//      function bytes32ToBytes(bytes32 _bytes32) public returns (bytes memory){\n//         // string memory str = string(_bytes32);\n//         // TypeError: Explicit type conversion not allowed from \"bytes32\" to \"string storage pointer\"\n//         bytes memory bytesArray = new bytes(32);\n//         for (uint256 i; i < 32; i++) {\n//             bytesArray[i] = _bytes32[i];\n//         }\n//         return bytesArray;\n//     }//\n\n//     function bytes32ToString(bytes32 _bytes32) public returns (string memory){\n//         bytes memory bytesArray = bytes32ToBytes(_bytes32);\n//         return string(bytesArray);\n//     }//\n\n// }",
  "sourcePath": "/home/carlos/gitrepos/TrafiGuard/contracts/Tradeora Contracts/Financials.sol",
  "compiler": {
    "name": "solc",
    "version": "0.6.12+commit.27d51765.Emscripten.clang"
  },
  "schemaVersion": "3.2.5",
  "updatedAt": "2020-10-22T06:09:42.844Z",
  "networkType": "ethereum",
  "devdoc": {
    "kind": "dev",
    "methods": {},
    "version": 1
  },
  "userdoc": {
    "kind": "user",
    "methods": {
      "bytes32ToBytes(bytes32)": {
        "notice": "Receive the response in the form of bytes32"
      },
      "constructor": "Oracle on Kovan for Get request bytes32",
      "evalRiskScore()": {
        "notice": "Create a Chainlink request to retrieve API response, find the target data, At Path"
      }
    },
    "version": 1
  }
}