{
  "contractName": "LinkPoolClient",
  "abi": [
    {
      "inputs": [],
      "stateMutability": "nonpayable",
      "type": "constructor"
    },
    {
      "anonymous": false,
      "inputs": [
        {
          "indexed": true,
          "internalType": "bytes32",
          "name": "id",
          "type": "bytes32"
        }
      ],
      "name": "ChainlinkCancelled",
      "type": "event"
    },
    {
      "anonymous": false,
      "inputs": [
        {
          "indexed": true,
          "internalType": "bytes32",
          "name": "id",
          "type": "bytes32"
        }
      ],
      "name": "ChainlinkFulfilled",
      "type": "event"
    },
    {
      "anonymous": false,
      "inputs": [
        {
          "indexed": true,
          "internalType": "bytes32",
          "name": "id",
          "type": "bytes32"
        }
      ],
      "name": "ChainlinkRequested",
      "type": "event"
    },
    {
      "inputs": [],
      "name": "API_URL",
      "outputs": [
        {
          "internalType": "string",
          "name": "",
          "type": "string"
        }
      ],
      "stateMutability": "view",
      "type": "function"
    },
    {
      "inputs": [],
      "name": "reqId",
      "outputs": [
        {
          "internalType": "bytes32",
          "name": "",
          "type": "bytes32"
        }
      ],
      "stateMutability": "view",
      "type": "function"
    },
    {
      "inputs": [],
      "name": "riskScore",
      "outputs": [
        {
          "internalType": "uint256",
          "name": "",
          "type": "uint256"
        }
      ],
      "stateMutability": "view",
      "type": "function"
    },
    {
      "inputs": [
        {
          "internalType": "string",
          "name": "URL",
          "type": "string"
        }
      ],
      "name": "setAPI_URL",
      "outputs": [],
      "stateMutability": "nonpayable",
      "type": "function"
    },
    {
      "inputs": [
        {
          "internalType": "string",
          "name": "tradeID",
          "type": "string"
        },
        {
          "internalType": "string",
          "name": "loanAmount",
          "type": "string"
        }
      ],
      "name": "evalRiskScore",
      "outputs": [],
      "stateMutability": "nonpayable",
      "type": "function"
    },
    {
      "inputs": [
        {
          "internalType": "bytes32",
          "name": "_requestId",
          "type": "bytes32"
        },
        {
          "internalType": "uint256",
          "name": "response",
          "type": "uint256"
        }
      ],
      "name": "fulfill",
      "outputs": [],
      "stateMutability": "nonpayable",
      "type": "function"
    },
    {
      "inputs": [
        {
          "internalType": "string",
          "name": "tradeID",
          "type": "string"
        },
        {
          "internalType": "string",
          "name": "loanAmount",
          "type": "string"
        }
      ],
      "name": "appendFunctionsWork",
      "outputs": [
        {
          "internalType": "string",
          "name": "URI",
          "type": "string"
        }
      ],
      "stateMutability": "view",
      "type": "function"
    }
  ],
  "bytecode": "0x608060405260016004553480156200001657600080fd5b5062000027620000b860201b60201c565b7356dd6586db0d08c6ce7b2f2805af28616e082455600660006101000a81548173ffffffffffffffffffffffffffffffffffffffff021916908373ffffffffffffffffffffffffffffffffffffffff1602179055507f623636303264313465343733346334396135653163653139643435613436333260078190555067016345785d8a000060088190555062000235565b6200015e73c89bd4e1632d3a43cb03aaad5262cbe4038bc57173ffffffffffffffffffffffffffffffffffffffff166338cc48316040518163ffffffff1660e01b815260040160206040518083038186803b1580156200011757600080fd5b505afa1580156200012c573d6000803e3d6000fd5b505050506040513d601f19601f82011682018060405250810190620001529190620001bb565b6200016060201b60201c565b565b80600260006101000a81548173ffffffffffffffffffffffffffffffffffffffff021916908373ffffffffffffffffffffffffffffffffffffffff16021790555050565b600081519050620001b5816200021b565b92915050565b600060208284031215620001ce57600080fd5b6000620001de84828501620001a4565b91505092915050565b6000620001f482620001fb565b9050919050565b600073ffffffffffffffffffffffffffffffffffffffff82169050919050565b6200022681620001e7565b81146200023257600080fd5b50565b61170880620002456000396000f3fe608060405234801561001057600080fd5b506004361061007d5760003560e01c80638997ce4e1161005b5780638997ce4e146100ec5780638fec61001461010a578063b8588eac14610126578063bfd02991146101425761007d565b80634357855e146100825780635f1a14d71461009e5780635f78296c146100bc575b600080fd5b61009c60048036038101906100979190610e9e565b610160565b005b6100a6610172565b6040516100b3919061144f565b60405180910390f35b6100d660048036038101906100d19190610f1b565b610210565b6040516100e3919061144f565b60405180910390f35b6100f46102dc565b6040516101019190611434565b60405180910390f35b610124600480360381019061011f9190610eda565b6102e2565b005b610140600480360381019061013b9190610f1b565b6102fc565b005b61014a6104df565b6040516101579190611491565b60405180910390f35b81600a8190555080600b819055505050565b60098054600181600116156101000203166002900480601f0160208091040260200160405190810160405280929190818152602001828054600181600116156101000203166002900480156102085780601f106101dd57610100808354040283529160200191610208565b820191906000526020600020905b8154815290600101906020018083116101eb57829003601f168201915b505050505081565b60606102506040518060400160405280600981526020017f66696e616e6369616c00000000000000000000000000000000000000000000008152506104e5565b9050610292816040518060400160405280600381526020017f50414e000000000000000000000000000000000000000000000000000000000081525085610511565b90506102d4816040518060400160405280600a81526020017f6c6f616e416d6f756e740000000000000000000000000000000000000000000081525084610540565b905092915050565b600a5481565b80600990805190602001906102f8929190610cbe565b5050565b610304610d3e565b61031860075430634357855e60e01b61056f565b9050606061035a6040518060400160405280600a81526020017f66696e616e6369616c73000000000000000000000000000000000000000000008152506104e5565b905061039c816040518060400160405280600381526020017f50414e000000000000000000000000000000000000000000000000000000000081525086610511565b90506103de816040518060400160405280600a81526020017f6c6f616e416d6f756e740000000000000000000000000000000000000000000081525085610540565b905061042a6040518060400160405280600381526020017f676574000000000000000000000000000000000000000000000000000000000081525082846105a09092919063ffffffff16565b6104a96040518060400160405280600481526020017f70617468000000000000000000000000000000000000000000000000000000008152506040518060400160405280600d81526020017f7269736b526564756374696f6e00000000000000000000000000000000000000815250846105a09092919063ffffffff16565b6104d8600660009054906101000a900473ffffffffffffffffffffffffffffffffffffffff16836008546105d3565b5050505050565b600b5481565b60606009826040516020016104fb929190611342565b6040516020818303038152906040529050919050565b6060838383604051602001610528939291906112b4565b60405160208183030381529060405290509392505050565b6060838383604051602001610557939291906112fb565b60405160208183030381529060405290509392505050565b610577610d3e565b61057f610d3e565b6105968585858461079d909392919063ffffffff16565b9150509392505050565b6105b782846080015161084d90919063ffffffff16565b6105ce81846080015161084d90919063ffffffff16565b505050565b6000306004546040516020016105ea929190611288565b604051602081830303815290604052805190602001209050600454836060018181525050836005600083815260200190815260200160002060006101000a81548173ffffffffffffffffffffffffffffffffffffffff021916908373ffffffffffffffffffffffffffffffffffffffff160217905550807fb5e6e01e79f91267dc17b4e6314d5d4d03593d2ceee0fbb452b750bd70ea5af960405160405180910390a2600260009054906101000a900473ffffffffffffffffffffffffffffffffffffffff1673ffffffffffffffffffffffffffffffffffffffff16634000aea085846106d687610872565b6040518463ffffffff1660e01b81526004016106f4939291906113f6565b602060405180830381600087803b15801561070e57600080fd5b505af1158015610722573d6000803e3d6000fd5b505050506040513d601f19601f820116820180604052508101906107469190610e75565b610785576040517f08c379a000000000000000000000000000000000000000000000000000000000815260040161077c90611471565b60405180910390fd5b60016004600082825401925050819055509392505050565b6107a5610d3e565b6107b58560800151610100610919565b508385600001818152505082856020019073ffffffffffffffffffffffffffffffffffffffff16908173ffffffffffffffffffffffffffffffffffffffff16815250508185604001907bffffffffffffffffffffffffffffffffffffffffffffffffffffffff191690817bffffffffffffffffffffffffffffffffffffffffffffffffffffffff191681525050849050949350505050565b61085a826003835161096d565b61086d8183610ab290919063ffffffff16565b505050565b6060634042994660e01b600080846000015185602001518660400151876060015160018960800151600001516040516024016108b5989796959493929190611371565b604051602081830303815290604052907bffffffffffffffffffffffffffffffffffffffffffffffffffffffff19166020820180517bffffffffffffffffffffffffffffffffffffffffffffffffffffffff83818316178352505050509050919050565b610921610dab565b60006020838161092d57fe5b0614610946576020828161093d57fe5b06602003820191505b81836020018181525050604051808452600081528281016020016040525082905092915050565b6017811161099a576109948160058460ff16901b60ff161784610ad490919063ffffffff16565b50610aad565b60ff81116109dc576109bf601860058460ff16901b1784610ad490919063ffffffff16565b506109d681600185610af49092919063ffffffff16565b50610aac565b61ffff8111610a1f57610a02601960058460ff16901b1784610ad490919063ffffffff16565b50610a1981600285610af49092919063ffffffff16565b50610aab565b63ffffffff8111610a6457610a47601a60058460ff16901b1784610ad490919063ffffffff16565b50610a5e81600485610af49092919063ffffffff16565b50610aaa565b67ffffffffffffffff8111610aa957610a90601b60058460ff16901b1784610ad490919063ffffffff16565b50610aa781600885610af49092919063ffffffff16565b505b5b5b5b5b505050565b610aba610dab565b610acc83846000015151848551610b16565b905092915050565b610adc610dab565b610aec8384600001515184610bcf565b905092915050565b610afc610dab565b610b0d848560000151518585610c1d565b90509392505050565b610b1e610dab565b8251821115610b2c57600080fd5b84602001518285011115610b5757610b56856002610b508860200151888701610c7e565b02610c9a565b5b600080865180518760208301019350808887011115610b765787860182525b60208701925050505b60208410610ba25780518252602082019150602081019050602084039350610b7f565b60006001856020036101000a03905080198251168184511681811785525050879350505050949350505050565b610bd7610dab565b83602001518310610bf457610bf3846002866020015102610c9a565b5b8351805160208583010184815381861415610c10576001820183525b5050508390509392505050565b610c25610dab565b84602001518483011115610c4357610c4285600286850102610c9a565b5b60006001836101000a0390508551838682010185831982511617815281518588011115610c705784870182525b505085915050949350505050565b600081831115610c9057829050610c94565b8190505b92915050565b606082600001519050610cad8383610919565b50610cb88382610ab2565b50505050565b828054600181600116156101000203166002900490600052602060002090601f016020900481019282601f10610cff57805160ff1916838001178555610d2d565b82800160010185558215610d2d579182015b82811115610d2c578251825591602001919060010190610d11565b5b509050610d3a9190610dc5565b5090565b6040518060a0016040528060008019168152602001600073ffffffffffffffffffffffffffffffffffffffff16815260200160007bffffffffffffffffffffffffffffffffffffffffffffffffffffffff1916815260200160008152602001610da5610dab565b81525090565b604051806040016040528060608152602001600081525090565b5b80821115610dde576000816000905550600101610dc6565b5090565b600081519050610df18161168d565b92915050565b600081359050610e06816116a4565b92915050565b600082601f830112610e1d57600080fd5b8135610e30610e2b826114d9565b6114ac565b91508082526020830160208301858383011115610e4c57600080fd5b610e578382846115ff565b50505092915050565b600081359050610e6f816116bb565b92915050565b600060208284031215610e8757600080fd5b6000610e9584828501610de2565b91505092915050565b60008060408385031215610eb157600080fd5b6000610ebf85828601610df7565b9250506020610ed085828601610e60565b9150509250929050565b600060208284031215610eec57600080fd5b600082013567ffffffffffffffff811115610f0657600080fd5b610f1284828501610e0c565b91505092915050565b60008060408385031215610f2e57600080fd5b600083013567ffffffffffffffff811115610f4857600080fd5b610f5485828601610e0c565b925050602083013567ffffffffffffffff811115610f7157600080fd5b610f7d85828601610e0c565b9150509250929050565b610f908161155d565b82525050565b610f9f8161157b565b82525050565b610fae81611585565b82525050565b6000610fbf8261151a565b610fc98185611530565b9350610fd981856020860161160e565b610fe28161166f565b840191505092915050565b610ffe610ff9826115db565b611641565b82525050565b600061100f82611525565b6110198185611541565b935061102981856020860161160e565b6110328161166f565b840191505092915050565b600061104882611525565b6110528185611552565b935061106281856020860161160e565b80840191505092915050565b60008154600181166000811461108b57600181146110b0576110f4565b607f600283041661109c8187611552565b955060ff19831686528086019350506110f4565b600282046110be8187611552565b95506110c985611505565b60005b828110156110eb578154818901526001820191506020810190506110cc565b82880195505050505b505092915050565b6000611109602383611541565b91507f756e61626c6520746f207472616e73666572416e6443616c6c20746f206f726160008301527f636c6500000000000000000000000000000000000000000000000000000000006020830152604082019050919050565b600061116f600183611552565b91507f3f000000000000000000000000000000000000000000000000000000000000006000830152600182019050919050565b60006111af600183611552565b91507f26000000000000000000000000000000000000000000000000000000000000006000830152600182019050919050565b60006111ef600183611552565b91507f3d000000000000000000000000000000000000000000000000000000000000006000830152600182019050919050565b600061122f600183611552565b91507f2f000000000000000000000000000000000000000000000000000000000000006000830152600182019050919050565b61126b816115d1565b82525050565b61128261127d826115d1565b611665565b82525050565b60006112948285610fed565b6014820191506112a48284611271565b6020820191508190509392505050565b60006112c0828661103d565b91506112cb82611162565b91506112d7828561103d565b91506112e2826111e2565b91506112ee828461103d565b9150819050949350505050565b6000611307828661103d565b9150611312826111a2565b915061131e828561103d565b9150611329826111e2565b9150611335828461103d565b9150819050949350505050565b600061134e828561106e565b915061135982611222565b9150611365828461103d565b91508190509392505050565b600061010082019050611387600083018b610f87565b611394602083018a611262565b6113a16040830189610f96565b6113ae6060830188610f87565b6113bb6080830187610fa5565b6113c860a0830186611262565b6113d560c0830185611262565b81810360e08301526113e78184610fb4565b90509998505050505050505050565b600060608201905061140b6000830186610f87565b6114186020830185611262565b818103604083015261142a8184610fb4565b9050949350505050565b60006020820190506114496000830184610f96565b92915050565b600060208201905081810360008301526114698184611004565b905092915050565b6000602082019050818103600083015261148a816110fc565b9050919050565b60006020820190506114a66000830184611262565b92915050565b6000604051905081810181811067ffffffffffffffff821117156114cf57600080fd5b8060405250919050565b600067ffffffffffffffff8211156114f057600080fd5b601f19601f8301169050602081019050919050565b60008190508160005260206000209050919050565b600081519050919050565b600081519050919050565b600082825260208201905092915050565b600082825260208201905092915050565b600081905092915050565b6000611568826115b1565b9050919050565b60008115159050919050565b6000819050919050565b60007fffffffff0000000000000000000000000000000000000000000000000000000082169050919050565b600073ffffffffffffffffffffffffffffffffffffffff82169050919050565b6000819050919050565b60006115e6826115ed565b9050919050565b60006115f8826115b1565b9050919050565b82818337600083830152505050565b60005b8381101561162c578082015181840152602081019050611611565b8381111561163b576000848401525b50505050565b600061164c82611653565b9050919050565b600061165e82611680565b9050919050565b6000819050919050565b6000601f19601f8301169050919050565b60008160601b9050919050565b6116968161156f565b81146116a157600080fd5b50565b6116ad8161157b565b81146116b857600080fd5b50565b6116c4816115d1565b81146116cf57600080fd5b5056fea2646970667358221220bff9509d18d24c5ec014514dc7922f5539acac058dc2388c6d9feee999a8689e64736f6c634300060c0033",
  "immutableReferences": {},
  "source": "pragma solidity ^0.6.0;\npragma experimental ABIEncoderV2;\n\nimport \"@chainlink/contracts/src/v0.6/ChainlinkClient.sol\";\n//import \"https://github.com/smartcontractkit/chainlink/evm-contracts/src/v0.6/interfaces/LinkTokenInterface.sol\";\n\n/// SPDX-License-Identifier: MIT\n\n\ncontract LinkPoolClient is ChainlinkClient {\n   address private oracle;\n   bytes32 private jobId;\n   uint256 private fee;\n\n   string public API_URL;\n   //mapping(bytes32 => uint256) public riskScore_from;\n   bytes32 public reqId;\n   uint256 public riskScore;\n\n   /**\n    * Network: Kovan\n    * Oracle:\n    *      Name:           LinkPool\n    *      Listing URL:    https://market.link/nodes/323602b9-3831-4f8d-a66b-3fb7531649eb\n    *      Address:        0x83dA1beEb89Ffaf56d0B7C50aFB0A66Fb4DF8cB1\n    * Job:\n    *      Name:           Get > Uint256\n    *      Listing URL:    https://market.link/jobs/\n    *      ID:             b6602d14e4734c49a5e1ce19d45a4632\n    *      Fee:            0.1 LINK\n    */\n   constructor() public {\n     setPublicChainlinkToken();\n     oracle = 0x56dd6586DB0D08c6Ce7B2f2805af28616E082455; // oracle address\n     jobId = \"b6602d14e4734c49a5e1ce19d45a4632\"; //job id\n     fee = 0.1 * 10 ** 18; // 0.1 LINK\n   }\n\n   function setAPI_URL(string memory URL)\n   public {\n     API_URL = URL;\n   }\n\n   function evalRiskScore(string memory tradeID, string memory loanAmount)\n   public {\n     Chainlink.Request memory req = buildChainlinkRequest(\n         jobId,\n         address(this),\n         this.fulfill.selector\n     );\n     string memory URI = appendEndpoint(\"financials\");\n     URI = appendFirstPram(URI, \"PAN\", tradeID);\n     URI = appendPrams(URI, \"loanAmount\", loanAmount);\n     req.add(\"get\", URI);\n     req.add(\"path\", \"riskReduction\");\n     sendChainlinkRequestTo(oracle, req, fee);\n   }\n\n   function fulfill(bytes32 _requestId, uint256 response)\n\n   public {\n       // riskScore_from[_requestId] = response;\n       reqId = _requestId;\n       riskScore = response;\n   }\n\n   function appendEndpoint(string memory endpoint) private view returns (string memory) {\n       return string(abi.encodePacked(API_URL,\"/\",endpoint));\n   }\n\n   function appendFirstPram(string memory URL_withEndpoint, string memory paramKey, string memory paramVal)\n   private pure returns (string memory) {\n       return string(abi.encodePacked(URL_withEndpoint,\"?\",paramKey,\"=\",paramVal));\n   }\n\n   function appendPrams(string memory URL_withFirstPram, string memory paramKey, string memory paramVal)\n   private pure returns (string memory) {\n       return string(abi.encodePacked(URL_withFirstPram,\"&\",paramKey,\"=\",paramVal));\n   }\n\n   function appendFunctionsWork( string memory tradeID, string memory loanAmount)\n   public view returns (string memory URI) {\n     URI = appendEndpoint(\"financial\");\n     URI = appendFirstPram(URI, \"PAN\", tradeID);\n     URI = appendPrams(URI, \"loanAmount\", loanAmount);\n   }\n}\n",
  "sourcePath": "/home/carlos/gitrepos/TrafiGuard/contracts/Tradeora Contracts/LinkPoolClient.sol",
  "compiler": {
    "name": "solc",
    "version": "0.6.12+commit.27d51765.Emscripten.clang"
  },
  "schemaVersion": "3.2.5",
  "updatedAt": "2020-10-22T05:13:09.489Z",
  "devdoc": {
    "kind": "dev",
    "methods": {},
    "version": 1
  },
  "userdoc": {
    "kind": "user",
    "methods": {
      "constructor": "Network: Kovan Oracle:      Name:           LinkPool      Listing URL:    https://market.link/nodes/323602b9-3831-4f8d-a66b-3fb7531649eb      Address:        0x83dA1beEb89Ffaf56d0B7C50aFB0A66Fb4DF8cB1 Job:      Name:           Get > Uint256      Listing URL:    https://market.link/jobs/      ID:             b6602d14e4734c49a5e1ce19d45a4632      Fee:            0.1 LINK"
    },
    "notice": "SPDX-License-Identifier: MIT",
    "version": 1
  }
}