{
  "contractName": "SellerDID",
  "abi": [
    {
      "inputs": [],
      "stateMutability": "nonpayable",
      "type": "constructor"
    },
    {
      "anonymous": false,
      "inputs": [
        {
          "indexed": true,
          "internalType": "bytes32",
          "name": "id",
          "type": "bytes32"
        }
      ],
      "name": "ChainlinkCancelled",
      "type": "event"
    },
    {
      "anonymous": false,
      "inputs": [
        {
          "indexed": true,
          "internalType": "bytes32",
          "name": "id",
          "type": "bytes32"
        }
      ],
      "name": "ChainlinkFulfilled",
      "type": "event"
    },
    {
      "anonymous": false,
      "inputs": [
        {
          "indexed": true,
          "internalType": "bytes32",
          "name": "id",
          "type": "bytes32"
        }
      ],
      "name": "ChainlinkRequested",
      "type": "event"
    },
    {
      "inputs": [],
      "name": "email",
      "outputs": [
        {
          "internalType": "string",
          "name": "",
          "type": "string"
        }
      ],
      "stateMutability": "view",
      "type": "function",
      "constant": true
    },
    {
      "inputs": [],
      "name": "phone",
      "outputs": [
        {
          "internalType": "string",
          "name": "",
          "type": "string"
        }
      ],
      "stateMutability": "view",
      "type": "function",
      "constant": true
    },
    {
      "inputs": [],
      "name": "reqId",
      "outputs": [
        {
          "internalType": "bytes32",
          "name": "",
          "type": "bytes32"
        }
      ],
      "stateMutability": "view",
      "type": "function",
      "constant": true
    },
    {
      "inputs": [],
      "name": "riskReduction",
      "outputs": [
        {
          "internalType": "uint256",
          "name": "",
          "type": "uint256"
        }
      ],
      "stateMutability": "view",
      "type": "function",
      "constant": true
    },
    {
      "inputs": [
        {
          "internalType": "string",
          "name": "_email",
          "type": "string"
        },
        {
          "internalType": "string",
          "name": "_phone",
          "type": "string"
        }
      ],
      "name": "evalRiskScore",
      "outputs": [],
      "stateMutability": "nonpayable",
      "type": "function"
    },
    {
      "inputs": [
        {
          "internalType": "string",
          "name": "_email",
          "type": "string"
        },
        {
          "internalType": "string",
          "name": "_phone",
          "type": "string"
        }
      ],
      "name": "set",
      "outputs": [],
      "stateMutability": "nonpayable",
      "type": "function"
    }
  ],
  "bytecode": "0x6080604052600160045534801561001557600080fd5b506100246100a560201b60201c565b73aa1dc356dc4b18f30c347798fd5379f3d77abc5b600660006101000a81548173ffffffffffffffffffffffffffffffffffffffff021916908373ffffffffffffffffffffffffffffffffffffffff1602179055507f6237323835643438353964613462323839633738363164623937316261663061600781905550610212565b61014573c89bd4e1632d3a43cb03aaad5262cbe4038bc57173ffffffffffffffffffffffffffffffffffffffff166338cc48316040518163ffffffff1660e01b815260040160206040518083038186803b15801561010257600080fd5b505afa158015610116573d6000803e3d6000fd5b505050506040513d601f19601f8201168201806040525081019061013a91906101a0565b61014760201b60201c565b565b80600260006101000a81548173ffffffffffffffffffffffffffffffffffffffff021916908373ffffffffffffffffffffffffffffffffffffffff16021790555050565b60008151905061019a816101fb565b92915050565b6000602082840312156101b257600080fd5b60006101c08482850161018b565b91505092915050565b60006101d4826101db565b9050919050565b600073ffffffffffffffffffffffffffffffffffffffff82169050919050565b610204816101c9565b811461020f57600080fd5b50565b610792806102216000396000f3fe608060405234801561001057600080fd5b50600436106100625760003560e01c8063820e93f5146100675780638997ce4e146100855780639284f497146100a3578063b8588eac146100c1578063c29217c0146100dd578063e942b516146100fb575b600080fd5b61006f610117565b60405161007c9190610623565b60405180910390f35b61008d6101b5565b60405161009a9190610608565b60405180910390f35b6100ab6101bb565b6040516100b89190610623565b60405180910390f35b6100db60048036038101906100d69190610458565b610259565b005b6100e561032f565b6040516100f29190610645565b60405180910390f35b61011560048036038101906101109190610458565b610335565b005b60098054600181600116156101000203166002900480601f0160208091040260200160405190810160405280929190818152602001828054600181600116156101000203166002900480156101ad5780601f10610182576101008083540402835291602001916101ad565b820191906000526020600020905b81548152906001019060200180831161019057829003601f168201915b505050505081565b600b5481565b600a8054600181600116156101000203166002900480601f0160208091040260200160405190810160405280929190818152602001828054600181600116156101000203166002900480156102515780601f1061022657610100808354040283529160200191610251565b820191906000526020600020905b81548152906001019060200180831161023457829003601f168201915b505050505081565b8160405160200161026a91906105da565b60405160208183030381529060405280519060200120600960405160200161029291906105f1565b60405160208183030381529060405280519060200120146102b557600c546102bc565b6008600c54015b600c81905550806040516020016102d391906105da565b60405160208183030381529060405280519060200120600a6040516020016102fb91906105f1565b604051602081830303815290604052805190602001201461031e57600c54610325565b600b600c54015b600c819055505050565b600c5481565b816009908051906020019061034b929190610367565b5080600a9080519060200190610362929190610367565b505050565b828054600181600116156101000203166002900490600052602060002090601f016020900481019282601f106103a857805160ff19168380011785556103d6565b828001600101855582156103d6579182015b828111156103d55782518255916020019190600101906103ba565b5b5090506103e391906103e7565b5090565b5b808211156104005760008160009055506001016103e8565b5090565b600082601f83011261041557600080fd5b81356104286104238261068d565b610660565b9150808252602083016020830185838301111561044457600080fd5b61044f838284610709565b50505092915050565b6000806040838503121561046b57600080fd5b600083013567ffffffffffffffff81111561048557600080fd5b61049185828601610404565b925050602083013567ffffffffffffffff8111156104ae57600080fd5b6104ba85828601610404565b9150509250929050565b6104cd816106f5565b82525050565b60006104de826106ce565b6104e881856106d9565b93506104f8818560208601610718565b6105018161074b565b840191505092915050565b6000610517826106ce565b61052181856106ea565b9350610531818560208601610718565b80840191505092915050565b60008154600181166000811461055a576001811461057f576105c3565b607f600283041661056b81876106ea565b955060ff19831686528086019350506105c3565b6002820461058d81876106ea565b9550610598856106b9565b60005b828110156105ba5781548189015260018201915060208101905061059b565b82880195505050505b505092915050565b6105d4816106ff565b82525050565b60006105e6828461050c565b915081905092915050565b60006105fd828461053d565b915081905092915050565b600060208201905061061d60008301846104c4565b92915050565b6000602082019050818103600083015261063d81846104d3565b905092915050565b600060208201905061065a60008301846105cb565b92915050565b6000604051905081810181811067ffffffffffffffff8211171561068357600080fd5b8060405250919050565b600067ffffffffffffffff8211156106a457600080fd5b601f19601f8301169050602081019050919050565b60008190508160005260206000209050919050565b600081519050919050565b600082825260208201905092915050565b600081905092915050565b6000819050919050565b6000819050919050565b82818337600083830152505050565b60005b8381101561073657808201518184015260208101905061071b565b83811115610745576000848401525b50505050565b6000601f19601f830116905091905056fea2646970667358221220be4ce1fe4da2f095d42aea1907fd6759e61fcc6ab8d19379326901f8d4719ce764736f6c634300060c0033",
  "immutableReferences": {},
  "source": "pragma solidity ^0.6.0;\npragma experimental ABIEncoderV2;\n\nimport \"@chainlink/contracts/src/v0.6/ChainlinkClient.sol\";\n// import \"https://raw.githubusercontent.com/smartcontractkit/chainlink/develop/evm-contracts/src/v0.6/ChainlinkClient.sol\";\n\n/// SPDX-License-Identifier: MIT\n// Deployed on: Kovan at: 0x71Bf3281b35AEf03a4a89b660E9666B24c8090d0\ncontract SellerDID is ChainlinkClient {\n    address private oracle;\n    bytes32 private jobId;\n    uint256 private fee;\n\n    string public email;\n    string public phone;\n\n    bytes32 public reqId;\n    uint256 public riskReduction;\n\n    address linkTokenAddress;\n\n    /*\n        _oracle = 0x56dd6586DB0D08c6Ce7B2f2805af28616E082455;\n        _jobId = \"c128fbb0175442c8ba828040fdd1a25e\";\n        _API_URL = https://payid.trade:4000;\n    */\n    constructor()\n    public {\n    \tsetPublicChainlinkToken();\n\t\t\toracle = 0xAA1DC356dc4B18f30C347798FD5379F3D77ABC5b;\n\t\t\tjobId = \"b7285d4859da4b289c7861db971baf0a\";\n    }\n\n    function evalRiskScore(string memory _email, string memory _phone)\n    public {\n\t\t\triskReduction = keccak256(abi.encodePacked(email)) == keccak256(abi.encodePacked(_email)) ? riskReduction+8 : riskReduction;\n\t\t\triskReduction = keccak256(abi.encodePacked(phone)) == keccak256(abi.encodePacked(_phone)) ? riskReduction+11 : riskReduction;\n    }\n\n    function set(string memory _email, string memory _phone)\n    public {\n\t\t\temail = _email;\n\t\t\tphone = _phone;\n\t\t\t//\"{\".concat(email).concat(\",\").concat(phone).concat(\"}\");\n    }\n}\n\nlibrary stringFunctions {\n\n    function concat(string calldata word1, string calldata word2)\n    external pure returns (string memory) {\n\t\t\treturn string(abi.encodePacked(word1,word2));\n    }\n}\n",
  "sourcePath": "/home/carlos/gitrepos/TrafiGuard/contracts/Tradeora Contracts/SellerDID.sol",
  "compiler": {
    "name": "solc",
    "version": "0.6.12+commit.27d51765.Emscripten.clang"
  },
  "schemaVersion": "3.2.5",
  "updatedAt": "2020-10-22T06:09:42.857Z",
  "networkType": "ethereum",
  "devdoc": {
    "kind": "dev",
    "methods": {},
    "version": 1
  },
  "userdoc": {
    "kind": "user",
    "methods": {},
    "notice": "SPDX-License-Identifier: MIT",
    "version": 1
  }
}