{
  "contractName": "ShipmentCollateralHandling",
  "abi": [
    {
      "inputs": [],
      "stateMutability": "nonpayable",
      "type": "constructor"
    },
    {
      "inputs": [],
      "name": "giveMeETH",
      "outputs": [],
      "stateMutability": "payable",
      "type": "function"
    },
    {
      "inputs": [],
      "name": "lockCollateral",
      "outputs": [],
      "stateMutability": "payable",
      "type": "function"
    },
    {
      "inputs": [],
      "name": "takeOutLoan",
      "outputs": [],
      "stateMutability": "nonpayable",
      "type": "function"
    },
    {
      "inputs": [],
      "name": "repayLoan",
      "outputs": [],
      "stateMutability": "nonpayable",
      "type": "function"
    },
    {
      "inputs": [],
      "name": "redeemCollateral",
      "outputs": [],
      "stateMutability": "nonpayable",
      "type": "function"
    }
  ],
  "bytecode": "0x608060405234801561001057600080fd5b50600073b7a4f3e9097c08da09517b5ab877f7a917224ede90506000734a92e71227d294f041bd82dd8f78591b75140d639050600082905060008290506000735eae89dc1c671724a672ff0630122ee834098657905073b7a4f3e9097c08da09517b5ab877f7a917224ede9450846000806101000a81548173ffffffffffffffffffffffffffffffffffffffff021916908373ffffffffffffffffffffffffffffffffffffffff16021790555083600160006101000a81548173ffffffffffffffffffffffffffffffffffffffff021916908373ffffffffffffffffffffffffffffffffffffffff16021790555082600260006101000a81548173ffffffffffffffffffffffffffffffffffffffff021916908373ffffffffffffffffffffffffffffffffffffffff16021790555081600360006101000a81548173ffffffffffffffffffffffffffffffffffffffff021916908373ffffffffffffffffffffffffffffffffffffffff16021790555080600460006101000a81548173ffffffffffffffffffffffffffffffffffffffff021916908373ffffffffffffffffffffffffffffffffffffffff16021790555050505050506108a2806101d56000396000f3fe60806040526004361061004a5760003560e01c80632a66ede51461004f57806370a887351461005957806376b6152814610063578063a65344701461007a578063f966ade714610091575b600080fd5b6100576100a8565b005b6100616100aa565b005b34801561006f57600080fd5b50610078610493565b005b34801561008657600080fd5b5061008f610548565b005b34801561009d57600080fd5b506100a66106c4565b005b565b60008054906101000a900473ffffffffffffffffffffffffffffffffffffffff1673ffffffffffffffffffffffffffffffffffffffff1663095ea7b3600160009054906101000a900473ffffffffffffffffffffffffffffffffffffffff166127106040518363ffffffff1660e01b8152600401808373ffffffffffffffffffffffffffffffffffffffff16815260200182815260200192505050602060405180830381600087803b15801561015f57600080fd5b505af1158015610173573d6000803e3d6000fd5b505050506040513d602081101561018957600080fd5b810190808051906020019092919050505050600160009054906101000a900473ffffffffffffffffffffffffffffffffffffffff1673ffffffffffffffffffffffffffffffffffffffff1663a0712d686127106040518263ffffffff1660e01b815260040180828152602001915050602060405180830381600087803b15801561021257600080fd5b505af1158015610226573d6000803e3d6000fd5b505050506040513d602081101561023c57600080fd5b8101908080519060200190929190505050506060600167ffffffffffffffff8111801561026857600080fd5b506040519080825280602002602001820160405280156102975781602001602082028036833780820191505090505b509050600160009054906101000a900473ffffffffffffffffffffffffffffffffffffffff16816000815181106102ca57fe5b602002602001019073ffffffffffffffffffffffffffffffffffffffff16908173ffffffffffffffffffffffffffffffffffffffff1681525050600460009054906101000a900473ffffffffffffffffffffffffffffffffffffffff1673ffffffffffffffffffffffffffffffffffffffff1663c2998238826040518263ffffffff1660e01b81526004018080602001828103825283818151815260200191508051906020019060200280838360005b8381101561039557808201518184015260208101905061037a565b5050505090500192505050600060405180830381600087803b1580156103ba57600080fd5b505af11580156103ce573d6000803e3d6000fd5b505050506040513d6000823e3d601f19601f8201168201806040525060208110156103f857600080fd5b810190808051604051939291908464010000000082111561041857600080fd5b8382019150602082018581111561042e57600080fd5b825186602082028301116401000000008211171561044b57600080fd5b8083526020830192505050908051906020019060200280838360005b83811015610482578082015181840152602081019050610467565b505050509050016040525050505050565b600360009054906101000a900473ffffffffffffffffffffffffffffffffffffffff1673ffffffffffffffffffffffffffffffffffffffff1663c5ebeaec6107d06040518263ffffffff1660e01b815260040180828152602001915050602060405180830381600087803b15801561050a57600080fd5b505af115801561051e573d6000803e3d6000fd5b505050506040513d602081101561053457600080fd5b810190808051906020019092919050505050565b6000600160009054906101000a900473ffffffffffffffffffffffffffffffffffffffff1673ffffffffffffffffffffffffffffffffffffffff166370a08231306040518263ffffffff1660e01b8152600401808273ffffffffffffffffffffffffffffffffffffffff16815260200191505060206040518083038186803b1580156105d357600080fd5b505afa1580156105e7573d6000803e3d6000fd5b505050506040513d60208110156105fd57600080fd5b81019080805190602001909291905050509050600160009054906101000a900473ffffffffffffffffffffffffffffffffffffffff1673ffffffffffffffffffffffffffffffffffffffff1663db006a75826040518263ffffffff1660e01b815260040180828152602001915050602060405180830381600087803b15801561068557600080fd5b505af1158015610699573d6000803e3d6000fd5b505050506040513d60208110156106af57600080fd5b81019080805190602001909291905050505050565b600260009054906101000a900473ffffffffffffffffffffffffffffffffffffffff1673ffffffffffffffffffffffffffffffffffffffff1663095ea7b3600360009054906101000a900473ffffffffffffffffffffffffffffffffffffffff166155f06040518363ffffffff1660e01b8152600401808373ffffffffffffffffffffffffffffffffffffffff16815260200182815260200192505050602060405180830381600087803b15801561077b57600080fd5b505af115801561078f573d6000803e3d6000fd5b505050506040513d60208110156107a557600080fd5b810190808051906020019092919050505050600360009054906101000a900473ffffffffffffffffffffffffffffffffffffffff1673ffffffffffffffffffffffffffffffffffffffff16630e7527026107d06040518263ffffffff1660e01b815260040180828152602001915050602060405180830381600087803b15801561082e57600080fd5b505af1158015610842573d6000803e3d6000fd5b505050506040513d602081101561085857600080fd5b81019080805190602001909291905050505056fea2646970667358221220854b3211beb6d9c99640e677f8cf1d03c917e50ba244fc2255dfc1cec1d8d6c764736f6c634300060c0033",
  "immutableReferences": {},
  "source": "pragma solidity ^0.6.12;\n\n/// SPDX-License-Identifier: MIT\n\n///import './CompoundControllerInterface.sol';\n///import './CTokenInterface.sol';\n\n/// Compound-Addresses on Kovan:\n/// https://github.com/compound-finance/compound-protocol/blob/master/networks/kovan.json\n\n/// For examples see deployed smart contract: https://kovan.etherscan.io/address/0x9886a3eafa2e1271b3c9e391e665d2e4c3631965\n\ninterface IERC20 {\n    function totalSupply() external view returns (uint256);\n    function balanceOf(address account) external view returns (uint256);\n    function transfer(address recipient, uint256 amount) external returns (bool);\n    function allowance(address owner, address spender) external view returns (uint256);\n    function approve(address spender, uint256 amount) external returns (bool);\n    function transferFrom(address sender, address recipient, uint256 amount) external returns (bool);\n    event Transfer(address indexed from, address indexed to, uint256 value);\n    event Approval(address indexed owner, address indexed spender, uint256 value);\n}\n\ninterface CTokenInterface {\n    function transfer(address dst, uint amount) external returns (bool);\n    function transferFrom(address src, address dst, uint amount) external returns (bool);\n    function approve(address spender, uint amount) external returns (bool);\n    function allowance(address owner, address spender) external view returns (uint);\n    function balanceOf(address owner) external view returns (uint);\n    function balanceOfUnderlying(address owner) external returns (uint);\n    function getAccountSnapshot(address account) external view returns (uint, uint, uint, uint);\n    function borrowRatePerBlock() external view returns (uint);\n    function supplyRatePerBlock() external view returns (uint);\n    function totalBorrowsCurrent() external returns (uint);\n    function borrowBalanceCurrent(address account) external returns (uint);\n    ///function borrowBalanceStored(address account) public view returns (uint);\n    ///function exchangeRateCurrent() public returns (uint);\n    ///function exchangeRateStored() public view returns (uint);\n    function getCash() external view returns (uint);\n    ///function accrueInterest() public returns (uint);\n    function seize(address liquidator, address borrower, uint seizeTokens) external returns (uint);\n\n    function mint(uint mintAmount) external returns (uint);\n    function redeem(uint redeemTokens) external returns (uint);\n    function redeemUnderlying(uint redeemAmount) external returns (uint);\n    function borrow(uint borrowAmount) external returns (uint);\n    function repayBorrow(uint repayAmount) external returns (uint);\n    function repayBorrowBehalf(address borrower, uint repayAmount) external returns (uint);\n    function liquidateBorrow(address borrower, uint repayAmount, CTokenInterface cTokenCollateral) external returns (uint);\n}\n\ninterface ComptrollerInterface {\n    /// @notice Indicator that this is a Comptroller contract (for inspection)\n\n    /*** Assets You Are In ***/\n\n    function enterMarkets(address[] calldata cTokens) external returns (uint[] memory);\n    function exitMarket(address cToken) external returns (uint);\n\n    /*** Policy Hooks ***/\n\n    function mintAllowed(address cToken, address minter, uint mintAmount) external returns (uint);\n    function mintVerify(address cToken, address minter, uint mintAmount, uint mintTokens) external;\n\n    function redeemAllowed(address cToken, address redeemer, uint redeemTokens) external returns (uint);\n    function redeemVerify(address cToken, address redeemer, uint redeemAmount, uint redeemTokens) external;\n\n    function borrowAllowed(address cToken, address borrower, uint borrowAmount) external returns (uint);\n    function borrowVerify(address cToken, address borrower, uint borrowAmount) external;\n\n    function repayBorrowAllowed(\n        address cToken,\n        address payer,\n        address borrower,\n        uint repayAmount) external returns (uint);\n    function repayBorrowVerify(\n        address cToken,\n        address payer,\n        address borrower,\n        uint repayAmount,\n        uint borrowerIndex) external;\n\n    function liquidateBorrowAllowed(\n        address cTokenBorrowed,\n        address cTokenCollateral,\n        address liquidator,\n        address borrower,\n        uint repayAmount) external returns (uint);\n    function liquidateBorrowVerify(\n        address cTokenBorrowed,\n        address cTokenCollateral,\n        address liquidator,\n        address borrower,\n        uint repayAmount,\n        uint seizeTokens) external;\n\n    function seizeAllowed(\n        address cTokenCollateral,\n        address cTokenBorrowed,\n        address liquidator,\n        address borrower,\n        uint seizeTokens) external returns (uint);\n    function seizeVerify(\n        address cTokenCollateral,\n        address cTokenBorrowed,\n        address liquidator,\n        address borrower,\n        uint seizeTokens) external;\n\n    function transferAllowed(address cToken, address src, address dst, uint transferTokens) external returns (uint);\n    function transferVerify(address cToken, address src, address dst, uint transferTokens) external;\n\n    /*** Liquidity/Liquidation Calculations ***/\n\n    function liquidateCalculateSeizeTokens(\n        address cTokenBorrowed,\n        address cTokenCollateral,\n        uint repayAmount) external view returns (uint, uint);\n}\n\ncontract ShipmentCollateralHandling {\n\n      /**\n\n    *@dev bool public constant isComptroller = true;\n\n*/\n\n  /**\n        *@dev to be used for buyer to lock tokens.\n  */\n\n    IERC20 USDC;\n\n    CTokenInterface cUSDC;\n\n      /**\n        *@dev to be used by seller to take loan\n  */\n\n    IERC20 DAI;\n\n    CTokenInterface cDAI;\n    ComptrollerInterface comptroller;\n\n    constructor() public {\n        /// Kovan testnet configuration - change for live\n        address _USDC=address(0xb7a4F3E9097C08dA09517b5aB877F7a917224ede);\n        address _cUSDC=address(0x4a92E71227D294F041BD82dd8f78591B75140d63);\n        address _DAI=_USDC; /// just for testnet usage\n        address _cDAI=_cUSDC;\n        address _comptroller=address(0x5eAe89DC1C671724A672ff0630122ee834098657); /// on Kovan testnet\n\n        _USDC=0xb7a4F3E9097C08dA09517b5aB877F7a917224ede;\n        USDC = IERC20(_USDC);\n        cUSDC = CTokenInterface(_cUSDC);\n        DAI = IERC20(_DAI);\n        cDAI = CTokenInterface(_cDAI);\n        comptroller = ComptrollerInterface(_comptroller);\n    }\n    \n    function giveMeETH() public payable {}\n\n    function lockCollateral() external payable {  /// for buyer to lock invested amount, e.g. 10,000 USDC (example - adjust to UI later)\n        USDC.approve(address(cUSDC), 10000); /// Amount has 6 decimals: 000000, meaning 10000 = 0.010000 USDC\n        cUSDC.mint(10000);\n        address[] memory colls = new address[](1);\n        colls[0] = address(cUSDC);\n        comptroller.enterMarkets(colls);\n    }\n\n    function takeOutLoan() external { // for seller to take out allowance\n        cDAI.borrow(2000); /// Collateral-Factor to be considered! 20% of loan > 1.5 ratio\n    }\n\n    function repayLoan() external {\n        DAI.approve(address(cDAI), 22000); /// make sure debit interest is considered\n        cDAI.repayBorrow(2000);\n    }\n\n    function redeemCollateral() external {\n        uint balancePlusInterest = cUSDC.balanceOf(address(this));\n        cUSDC.redeem(balancePlusInterest);  /// what happens with the interest? > Should stay in contract, which is {balance - 10000}\n         /// next step: send investment back to buyer\n    }\n}\n",
  "sourcePath": "/home/carlos/gitrepos/TrafiGuard/contracts/Tradeora Contracts/ShipmentCollateralHandling_latest.sol",
  "compiler": {
    "name": "solc",
    "version": "0.6.12+commit.27d51765.Emscripten.clang"
  },
  "schemaVersion": "3.2.5",
  "updatedAt": "2020-10-22T06:08:44.181Z",
  "devdoc": {
    "kind": "dev",
    "methods": {},
    "stateVariables": {
      "DAI": {
        "details": "to be used by seller to take loan"
      },
      "USDC": {
        "details": "to be used for buyer to lock tokens."
      }
    },
    "version": 1
  },
  "userdoc": {
    "kind": "user",
    "methods": {},
    "version": 1
  }
}