{
  "contractName": "stringFunctions",
  "abi": [
    {
      "inputs": [
        {
          "internalType": "string",
          "name": "word1",
          "type": "string"
        },
        {
          "internalType": "string",
          "name": "word2",
          "type": "string"
        }
      ],
      "name": "concat",
      "outputs": [
        {
          "internalType": "string",
          "name": "",
          "type": "string"
        }
      ],
      "stateMutability": "pure",
      "type": "function"
    }
  ],
  "bytecode": "0x6102b3610026600b82828239805160001a60731461001957fe5b30600052607381538281f3fe73000000000000000000000000000000000000000030146080604052600436106100355760003560e01c806389c19ddb1461003a575b600080fd5b610054600480360381019061004f91906100e6565b61006a565b60405161006191906101e1565b60405180910390f35b60608484848460405160200161008394939291906101b9565b6040516020818303038152906040529050949350505050565b60008083601f8401126100ae57600080fd5b8235905067ffffffffffffffff8111156100c757600080fd5b6020830191508360018202830111156100df57600080fd5b9250929050565b600080600080604085870312156100fc57600080fd5b600085013567ffffffffffffffff81111561011657600080fd5b6101228782880161009c565b9450945050602085013567ffffffffffffffff81111561014157600080fd5b61014d8782880161009c565b925092505092959194509250565b6000610167838561021f565b935061017483858461022a565b82840190509392505050565b600061018b82610203565b610195818561020e565b93506101a5818560208601610239565b6101ae8161026c565b840191505092915050565b60006101c682868861015b565b91506101d382848661015b565b915081905095945050505050565b600060208201905081810360008301526101fb8184610180565b905092915050565b600081519050919050565b600082825260208201905092915050565b600081905092915050565b82818337600083830152505050565b60005b8381101561025757808201518184015260208101905061023c565b83811115610266576000848401525b50505050565b6000601f19601f830116905091905056fea2646970667358221220123a5f3eaa2165cbda58e083cf7f7f5e6d860b3cb5dc984175da458285c50bee64736f6c634300060c0033",
  "immutableReferences": {},
  "source": "pragma solidity ^0.6.0;\npragma experimental ABIEncoderV2;\n\nimport \"@chainlink/contracts/src/v0.6/ChainlinkClient.sol\";\n// import \"https://raw.githubusercontent.com/smartcontractkit/chainlink/develop/evm-contracts/src/v0.6/ChainlinkClient.sol\";\n\n/// SPDX-License-Identifier: MIT\n// Deployed on: Kovan at: 0x71Bf3281b35AEf03a4a89b660E9666B24c8090d0\ncontract SellerDID is ChainlinkClient {\n    address private oracle;\n    bytes32 private jobId;\n    uint256 private fee;\n\n    string public email;\n    string public phone;\n\n    bytes32 public reqId;\n    uint256 public riskReduction;\n\n    address linkTokenAddress;\n\n    /*\n        _oracle = 0x56dd6586DB0D08c6Ce7B2f2805af28616E082455;\n        _jobId = \"c128fbb0175442c8ba828040fdd1a25e\";\n        _API_URL = https://payid.trade:4000;\n    */\n    constructor()\n    public {\n    \tsetPublicChainlinkToken();\n\t\t\toracle = 0xAA1DC356dc4B18f30C347798FD5379F3D77ABC5b;\n\t\t\tjobId = \"b7285d4859da4b289c7861db971baf0a\";\n    }\n\n    function evalRiskScore(string memory _email, string memory _phone)\n    public {\n\t\t\triskReduction = keccak256(abi.encodePacked(email)) == keccak256(abi.encodePacked(_email)) ? riskReduction+8 : riskReduction;\n\t\t\triskReduction = keccak256(abi.encodePacked(phone)) == keccak256(abi.encodePacked(_phone)) ? riskReduction+11 : riskReduction;\n    }\n\n    function set(string memory _email, string memory _phone)\n    public {\n\t\t\temail = _email;\n\t\t\tphone = _phone;\n\t\t\t//\"{\".concat(email).concat(\",\").concat(phone).concat(\"}\");\n    }\n}\n\nlibrary stringFunctions {\n\n    function concat(string calldata word1, string calldata word2)\n    external pure returns (string memory) {\n\t\t\treturn string(abi.encodePacked(word1,word2));\n    }\n}\n",
  "sourcePath": "/home/carlos/gitrepos/TrafiGuard/contracts/Tradeora Contracts/SellerDID.sol",
  "compiler": {
    "name": "solc",
    "version": "0.6.12+commit.27d51765.Emscripten.clang"
  },
  "schemaVersion": "3.2.5",
  "updatedAt": "2020-10-22T06:06:35.391Z",
  "devdoc": {
    "kind": "dev",
    "methods": {},
    "version": 1
  },
  "userdoc": {
    "kind": "user",
    "methods": {},
    "version": 1
  }
}