{
  "contractName": "Underwriting",
  "abi": [
    {
      "inputs": [],
      "name": "BOL_Reduction",
      "outputs": [
        {
          "internalType": "uint256",
          "name": "",
          "type": "uint256"
        }
      ],
      "stateMutability": "view",
      "type": "function",
      "constant": true
    },
    {
      "inputs": [],
      "name": "FIN_Reduction",
      "outputs": [
        {
          "internalType": "uint256",
          "name": "",
          "type": "uint256"
        }
      ],
      "stateMutability": "view",
      "type": "function",
      "constant": true
    },
    {
      "inputs": [],
      "name": "LoanRequest",
      "outputs": [
        {
          "internalType": "string",
          "name": "",
          "type": "string"
        }
      ],
      "stateMutability": "view",
      "type": "function",
      "constant": true
    },
    {
      "inputs": [],
      "name": "SellerDID_Reduction",
      "outputs": [
        {
          "internalType": "uint256",
          "name": "",
          "type": "uint256"
        }
      ],
      "stateMutability": "view",
      "type": "function",
      "constant": true
    },
    {
      "inputs": [],
      "name": "VSL_Reduction",
      "outputs": [
        {
          "internalType": "uint256",
          "name": "",
          "type": "uint256"
        }
      ],
      "stateMutability": "view",
      "type": "function",
      "constant": true
    },
    {
      "inputs": [],
      "name": "riskScore",
      "outputs": [
        {
          "internalType": "uint256",
          "name": "",
          "type": "uint256"
        }
      ],
      "stateMutability": "view",
      "type": "function",
      "constant": true
    },
    {
      "inputs": [
        {
          "internalType": "address",
          "name": "_addressBOL",
          "type": "address"
        },
        {
          "internalType": "address",
          "name": "_addressFIN",
          "type": "address"
        },
        {
          "internalType": "address",
          "name": "_addressVSL",
          "type": "address"
        },
        {
          "internalType": "address",
          "name": "_addressSellerDID",
          "type": "address"
        }
      ],
      "name": "setContractAddresses",
      "outputs": [],
      "stateMutability": "nonpayable",
      "type": "function"
    },
    {
      "inputs": [
        {
          "internalType": "string",
          "name": "tradeID",
          "type": "string"
        },
        {
          "internalType": "string",
          "name": "loanAmount",
          "type": "string"
        },
        {
          "internalType": "string",
          "name": "_poa",
          "type": "string"
        },
        {
          "internalType": "string",
          "name": "_pod",
          "type": "string"
        },
        {
          "internalType": "string",
          "name": "_loanDuration",
          "type": "string"
        },
        {
          "internalType": "string",
          "name": "_mmsi",
          "type": "string"
        }
      ],
      "name": "batchcall_APIs",
      "outputs": [],
      "stateMutability": "nonpayable",
      "type": "function"
    },
    {
      "inputs": [],
      "name": "batch_getRiskScore",
      "outputs": [],
      "stateMutability": "nonpayable",
      "type": "function"
    }
  ],
  "bytecode": "0x6080604052606460005534801561001557600080fd5b50610efa806100256000396000f3fe608060405234801561001057600080fd5b50600436106100935760003560e01c806396cd8cb01161006657806396cd8cb01461048c5780639bc763dc146104aa578063aaa68777146104c8578063b91a39421461056c578063bfd02991146105ef57610093565b806304c370dc146100985780631b377cf6146104465780631de3f3ee146104645780637d4d73181461046e575b600080fd5b610444600480360360c08110156100ae57600080fd5b81019080803590602001906401000000008111156100cb57600080fd5b8201836020820111156100dd57600080fd5b803590602001918460018302840111640100000000831117156100ff57600080fd5b91908080601f016020809104026020016040519081016040528093929190818152602001838380828437600081840152601f19601f8201169050808301925050505050505091929192908035906020019064010000000081111561016257600080fd5b82018360208201111561017457600080fd5b8035906020019184600183028401116401000000008311171561019657600080fd5b91908080601f016020809104026020016040519081016040528093929190818152602001838380828437600081840152601f19601f820116905080830192505050505050509192919290803590602001906401000000008111156101f957600080fd5b82018360208201111561020b57600080fd5b8035906020019184600183028401116401000000008311171561022d57600080fd5b91908080601f016020809104026020016040519081016040528093929190818152602001838380828437600081840152601f19601f8201169050808301925050505050505091929192908035906020019064010000000081111561029057600080fd5b8201836020820111156102a257600080fd5b803590602001918460018302840111640100000000831117156102c457600080fd5b91908080601f016020809104026020016040519081016040528093929190818152602001838380828437600081840152601f19601f8201169050808301925050505050505091929192908035906020019064010000000081111561032757600080fd5b82018360208201111561033957600080fd5b8035906020019184600183028401116401000000008311171561035b57600080fd5b91908080601f016020809104026020016040519081016040528093929190818152602001838380828437600081840152601f19601f820116905080830192505050505050509192919290803590602001906401000000008111156103be57600080fd5b8201836020820111156103d057600080fd5b803590602001918460018302840111640100000000831117156103f257600080fd5b91908080601f016020809104026020016040519081016040528093929190818152602001838380828437600081840152601f19601f82011690508083019250505050505050919291929050505061060d565b005b61044e610635565b6040518082815260200191505060405180910390f35b61046c61063b565b005b610476610660565b6040518082815260200191505060405180910390f35b610494610666565b6040518082815260200191505060405180910390f35b6104b261066c565b6040518082815260200191505060405180910390f35b61056a600480360360808110156104de57600080fd5b81019080803573ffffffffffffffffffffffffffffffffffffffff169060200190929190803573ffffffffffffffffffffffffffffffffffffffff169060200190929190803573ffffffffffffffffffffffffffffffffffffffff169060200190929190803573ffffffffffffffffffffffffffffffffffffffff169060200190929190505050610672565b005b61057461077c565b6040518080602001828103825283818151815260200191508051906020019080838360005b838110156105b4578082015181840152602081019050610599565b50505050905090810190601f1680156105e15780820380516001836020036101000a031916815260200191505b509250505060405180910390f35b6105f761081a565b6040518082815260200191505060405180910390f35b6106178686610820565b610623848484846108ef565b5061062c610b37565b50505050505050565b60035481565b606460008190555061064b610be7565b50610654610ca7565b5061065d610d67565b50565b60095481565b60075481565b60055481565b83600460006101000a81548173ffffffffffffffffffffffffffffffffffffffff021916908373ffffffffffffffffffffffffffffffffffffffff16021790555082600260006101000a81548173ffffffffffffffffffffffffffffffffffffffff021916908373ffffffffffffffffffffffffffffffffffffffff16021790555081600660006101000a81548173ffffffffffffffffffffffffffffffffffffffff021916908373ffffffffffffffffffffffffffffffffffffffff16021790555080600860006101000a81548173ffffffffffffffffffffffffffffffffffffffff021916908373ffffffffffffffffffffffffffffffffffffffff16021790555050505050565b60018054600181600116156101000203166002900480601f0160208091040260200160405190810160405280929190818152602001828054600181600116156101000203166002900480156108125780601f106107e757610100808354040283529160200191610812565b820191906000526020600020905b8154815290600101906020018083116107f557829003601f168201915b505050505081565b60005481565b6064600081905550806001908051906020019061083e929190610e27565b506000600260009054906101000a900473ffffffffffffffffffffffffffffffffffffffff1690508073ffffffffffffffffffffffffffffffffffffffff1663d3d0bc406040518163ffffffff1660e01b8152600401602060405180830381600087803b1580156108ae57600080fd5b505af11580156108c2573d6000803e3d6000fd5b505050506040513d60208110156108d857600080fd5b810190808051906020019092919050505050505050565b600080600660009054906101000a900473ffffffffffffffffffffffffffffffffffffffff1690508073ffffffffffffffffffffffffffffffffffffffff16634b6e70a2878787876040518563ffffffff1660e01b81526004018080602001806020018060200180602001858103855289818151815260200191508051906020019080838360005b83811015610992578082015181840152602081019050610977565b50505050905090810190601f1680156109bf5780820380516001836020036101000a031916815260200191505b50858103845288818151815260200191508051906020019080838360005b838110156109f85780820151818401526020810190506109dd565b50505050905090810190601f168015610a255780820380516001836020036101000a031916815260200191505b50858103835287818151815260200191508051906020019080838360005b83811015610a5e578082015181840152602081019050610a43565b50505050905090810190601f168015610a8b5780820380516001836020036101000a031916815260200191505b50858103825286818151815260200191508051906020019080838360005b83811015610ac4578082015181840152602081019050610aa9565b50505050905090810190601f168015610af15780820380516001836020036101000a031916815260200191505b5098505050505050505050600060405180830381600087803b158015610b1657600080fd5b505af1158015610b2a573d6000803e3d6000fd5b5050505050949350505050565b600080600460009054906101000a900473ffffffffffffffffffffffffffffffffffffffff1690508073ffffffffffffffffffffffffffffffffffffffff1663aecdc3fa6040518163ffffffff1660e01b8152600401602060405180830381600087803b158015610ba757600080fd5b505af1158015610bbb573d6000803e3d6000fd5b505050506040513d6020811015610bd157600080fd5b8101908080519060200190929190505050505090565b600080600260009054906101000a900473ffffffffffffffffffffffffffffffffffffffff1690508073ffffffffffffffffffffffffffffffffffffffff1663c29217c06040518163ffffffff1660e01b815260040160206040518083038186803b158015610c5557600080fd5b505afa158015610c69573d6000803e3d6000fd5b505050506040513d6020811015610c7f57600080fd5b8101908080519060200190929190505050600381905550600354600054036000819055505090565b600080600460009054906101000a900473ffffffffffffffffffffffffffffffffffffffff1690508073ffffffffffffffffffffffffffffffffffffffff166366023a0e6040518163ffffffff1660e01b815260040160206040518083038186803b158015610d1557600080fd5b505afa158015610d29573d6000803e3d6000fd5b505050506040513d6020811015610d3f57600080fd5b8101908080519060200190929190505050600581905550600554600054036000819055505090565b600080600660009054906101000a900473ffffffffffffffffffffffffffffffffffffffff1690508073ffffffffffffffffffffffffffffffffffffffff1663c29217c06040518163ffffffff1660e01b815260040160206040518083038186803b158015610dd557600080fd5b505afa158015610de9573d6000803e3d6000fd5b505050506040513d6020811015610dff57600080fd5b8101908080519060200190929190505050600781905550600754600054036000819055505090565b828054600181600116156101000203166002900490600052602060002090601f016020900481019282601f10610e6857805160ff1916838001178555610e96565b82800160010185558215610e96579182015b82811115610e95578251825591602001919060010190610e7a565b5b509050610ea39190610ea7565b5090565b5b80821115610ec0576000816000905550600101610ea8565b509056fea26469706673582212201ed918a07f665ce92f6badcabde3b96bb4a79f2abc8178985006fea996c58a7a64736f6c634300060c0033",
  "immutableReferences": {},
  "source": "\npragma solidity ^0.6.12;\n\nimport \"./BillOfLading.sol\";\nimport \"./Financials.sol\";\nimport \"./Vessels.sol\";\nimport \"./SellerDID.sol\";\n\n/// SPDX-License-Identifier: MIT\n\n\ncontract Underwriting{\n\n    uint256 public riskScore = 100;\n    string public LoanRequest;\n\n   //importing Finacials variables\n    address FINAddress;\n    uint256 public FIN_Reduction;\n\n   //importing Bill of Lading variables\n    address BOLAddress;\n    uint256 public BOL_Reduction;\n\n    //importing Vessels Contract\n    address VSLAddress;\n    uint256 public VSL_Reduction;\n\n    //importing SellerDID Contract\n    address SellerDIDAddress;\n    uint256 public SellerDID_Reduction;\n\n\n    //set Contract Addresses for API function call contracts\n\n    function setContractAddresses(address _addressBOL,address _addressFIN, address _addressVSL, address _addressSellerDID) external{\n        BOLAddress = _addressBOL;\n        FINAddress = _addressFIN;\n        VSLAddress = _addressVSL;\n        SellerDIDAddress = _addressSellerDID;\n    }\n\n    //1. Call Financials Contract API\n    function call_requestFinancialRiskReduction(string memory tradeID, string memory loanAmount) internal{\n        riskScore = 100;\n        LoanRequest = loanAmount;\n        Financials FIN = Financials(FINAddress);\n        FIN.evalRiskScore();\n    }\n\n    //2. Call Bill of lading contract API\n    function call_requestBillOfLading() internal returns(uint256){\n        BillOfLading BOL = BillOfLading(BOLAddress);\n        BOL.requestBillOfLading();\n    }\n\n    //3. Call Vessel location API\n    function call_requestVesselRisk(string memory _poa, string memory _pod, string memory _loanDuration, string memory _mmsi) internal returns(uint256){\n        Vessels VSL = Vessels(VSLAddress);\n        VSL.evalRiskScore(_poa, _pod, _loanDuration, _mmsi);\n    }\n\n\n    //4. Call Seller DID API\n    function call_requestSellerDIDRisk(string memory _email, string memory _phone) internal returns( string memory phone, string memory email ){\n        SellerDID sellerDID = SellerDID(SellerDIDAddress);\n        sellerDID.evalRiskScore(_email, _phone);\n    }\n\n\n    function getRiskReductionFIN() internal returns(uint256){\n        Financials FIN = Financials(FINAddress);\n        FIN_Reduction = FIN.riskReduction();\n        riskScore = riskScore - FIN_Reduction;\n    }\n\n    function getRiskReductionBOL() internal returns (uint256){\n        BillOfLading BOL = BillOfLading(BOLAddress);\n        BOL_Reduction = BOL.risk_reduction();\n        riskScore = riskScore - BOL_Reduction;\n    }\n\n    function getRiskReductionVSL() internal returns (uint256){\n        Vessels VSL = Vessels(VSLAddress);\n        VSL_Reduction = VSL.riskReduction();\n        riskScore = riskScore - VSL_Reduction;\n    }\n\n\n    function batchcall_APIs(string memory tradeID, string memory loanAmount, string memory _poa, string memory _pod, string memory _loanDuration, string memory _mmsi) public{\n        call_requestFinancialRiskReduction(tradeID, loanAmount);\n        call_requestVesselRisk(_poa, _pod, _loanDuration, _mmsi);\n        call_requestBillOfLading();\n\n    }\n\n    function batch_getRiskScore() public{\n        riskScore = 100;\n        getRiskReductionFIN();\n        getRiskReductionBOL();\n        getRiskReductionVSL();\n\n    }\n}",
  "sourcePath": "/home/carlos/gitrepos/TrafiGuard/contracts/Tradeora Contracts/Underwriting.sol",
  "compiler": {
    "name": "solc",
    "version": "0.6.12+commit.27d51765.Emscripten.clang"
  },
  "schemaVersion": "3.2.5",
  "updatedAt": "2020-10-22T06:09:42.862Z",
  "networkType": "ethereum",
  "devdoc": {
    "kind": "dev",
    "methods": {},
    "version": 1
  },
  "userdoc": {
    "kind": "user",
    "methods": {},
    "notice": "SPDX-License-Identifier: MIT",
    "version": 1
  }
}