{
  "contractName": "Vessels",
  "abi": [
    {
      "inputs": [],
      "stateMutability": "nonpayable",
      "type": "constructor"
    },
    {
      "anonymous": false,
      "inputs": [
        {
          "indexed": true,
          "internalType": "bytes32",
          "name": "id",
          "type": "bytes32"
        }
      ],
      "name": "ChainlinkCancelled",
      "type": "event"
    },
    {
      "anonymous": false,
      "inputs": [
        {
          "indexed": true,
          "internalType": "bytes32",
          "name": "id",
          "type": "bytes32"
        }
      ],
      "name": "ChainlinkFulfilled",
      "type": "event"
    },
    {
      "anonymous": false,
      "inputs": [
        {
          "indexed": true,
          "internalType": "bytes32",
          "name": "id",
          "type": "bytes32"
        }
      ],
      "name": "ChainlinkRequested",
      "type": "event"
    },
    {
      "inputs": [],
      "name": "API_URL",
      "outputs": [
        {
          "internalType": "string",
          "name": "",
          "type": "string"
        }
      ],
      "stateMutability": "view",
      "type": "function",
      "constant": true
    },
    {
      "inputs": [],
      "name": "full_URL",
      "outputs": [
        {
          "internalType": "string",
          "name": "",
          "type": "string"
        }
      ],
      "stateMutability": "view",
      "type": "function",
      "constant": true
    },
    {
      "inputs": [],
      "name": "reqId",
      "outputs": [
        {
          "internalType": "bytes32",
          "name": "",
          "type": "bytes32"
        }
      ],
      "stateMutability": "view",
      "type": "function",
      "constant": true
    },
    {
      "inputs": [],
      "name": "riskReduction",
      "outputs": [
        {
          "internalType": "uint256",
          "name": "",
          "type": "uint256"
        }
      ],
      "stateMutability": "view",
      "type": "function",
      "constant": true
    },
    {
      "inputs": [
        {
          "internalType": "string",
          "name": "portOfOrigin",
          "type": "string"
        },
        {
          "internalType": "string",
          "name": "portOfDestination",
          "type": "string"
        },
        {
          "internalType": "string",
          "name": "loanDuration",
          "type": "string"
        },
        {
          "internalType": "string",
          "name": "mmsi",
          "type": "string"
        }
      ],
      "name": "evalRiskScore",
      "outputs": [],
      "stateMutability": "nonpayable",
      "type": "function"
    },
    {
      "inputs": [
        {
          "internalType": "bytes32",
          "name": "_requestId",
          "type": "bytes32"
        },
        {
          "internalType": "uint256",
          "name": "response",
          "type": "uint256"
        }
      ],
      "name": "fulfill",
      "outputs": [],
      "stateMutability": "nonpayable",
      "type": "function"
    },
    {
      "inputs": [
        {
          "internalType": "string",
          "name": "URL",
          "type": "string"
        }
      ],
      "name": "setAPI_URL",
      "outputs": [],
      "stateMutability": "nonpayable",
      "type": "function"
    }
  ],
  "bytecode": "0x608060405260016004553480156200001657600080fd5b50620000276200010660201b60201c565b7356dd6586db0d08c6ce7b2f2805af28616e082455600660006101000a81548173ffffffffffffffffffffffffffffffffffffffff021916908373ffffffffffffffffffffffffffffffffffffffff1602179055507f62363630326431346534373334633439613565316365313964343561343633326007819055506040518060400160405280601781526020017f687474703a2f2f70617969642e74726164653a3430303000000000000000000081525060099080519060200190620000f0929190620001f2565b5067016345785d8a000060088190555062000329565b620001ac73c89bd4e1632d3a43cb03aaad5262cbe4038bc57173ffffffffffffffffffffffffffffffffffffffff166338cc48316040518163ffffffff1660e01b815260040160206040518083038186803b1580156200016557600080fd5b505afa1580156200017a573d6000803e3d6000fd5b505050506040513d601f19601f82011682018060405250810190620001a09190620002af565b620001ae60201b60201c565b565b80600260006101000a81548173ffffffffffffffffffffffffffffffffffffffff021916908373ffffffffffffffffffffffffffffffffffffffff16021790555050565b828054600181600116156101000203166002900490600052602060002090601f016020900481019282601f106200023557805160ff191683800117855562000266565b8280016001018555821562000266579182015b828111156200026557825182559160200191906001019062000248565b5b50905062000275919062000279565b5090565b5b80821115620002945760008160009055506001016200027a565b5090565b600081519050620002a9816200030f565b92915050565b600060208284031215620002c257600080fd5b6000620002d28482850162000298565b91505092915050565b6000620002e882620002ef565b9050919050565b600073ffffffffffffffffffffffffffffffffffffffff82169050919050565b6200031a81620002db565b81146200032657600080fd5b50565b611b0880620003396000396000f3fe608060405234801561001057600080fd5b506004361061007d5760003560e01c80635f1a14d71161005b5780635f1a14d7146100d85780638997ce4e146100f65780638fec610014610114578063c29217c0146101305761007d565b80634357855e146100825780634b6e70a21461009e5780634cef34de146100ba575b600080fd5b61009c60048036038101906100979190611247565b61014e565b005b6100b860048036038101906100b391906112c4565b610160565b005b6100c261072c565b6040516100cf919061184f565b60405180910390f35b6100e06107ca565b6040516100ed919061184f565b60405180910390f35b6100fe610868565b60405161010b9190611834565b60405180910390f35b61012e60048036038101906101299190611283565b61086e565b005b610138610888565b6040516101459190611891565b60405180910390f35b81600b8190555080600c819055505050565b610168611067565b61017c60075430634357855e60e01b61088e565b90506101bc6040518060400160405280600681526020017f76657373656c00000000000000000000000000000000000000000000000000008152506108bf565b600a90805190602001906101d19291906110d4565b506102ac600a8054600181600116156101000203166002900480601f01602080910402602001604051908101604052809291908181526020018280546001816001161561010002031660029004801561026b5780601f106102405761010080835404028352916020019161026b565b820191906000526020600020905b81548152906001019060200180831161024e57829003601f168201915b50505050506040518060400160405280600c81526020017f706f72744f664f726967696e0000000000000000000000000000000000000000815250876108eb565b600a90805190602001906102c19291906110d4565b5061039c600a8054600181600116156101000203166002900480601f01602080910402602001604051908101604052809291908181526020018280546001816001161561010002031660029004801561035b5780601f106103305761010080835404028352916020019161035b565b820191906000526020600020905b81548152906001019060200180831161033e57829003601f168201915b50505050506040518060400160405280601181526020017f706f72744f6644657374696e6174696f6e0000000000000000000000000000008152508661091a565b600a90805190602001906103b19291906110d4565b5061048c600a8054600181600116156101000203166002900480601f01602080910402602001604051908101604052809291908181526020018280546001816001161561010002031660029004801561044b5780601f106104205761010080835404028352916020019161044b565b820191906000526020600020905b81548152906001019060200180831161042e57829003601f168201915b50505050506040518060400160405280600c81526020017f6c6f616e4475726174696f6e00000000000000000000000000000000000000008152508561091a565b600a90805190602001906104a19291906110d4565b5061057c600a8054600181600116156101000203166002900480601f01602080910402602001604051908101604052809291908181526020018280546001816001161561010002031660029004801561053b5780601f106105105761010080835404028352916020019161053b565b820191906000526020600020905b81548152906001019060200180831161051e57829003601f168201915b50505050506040518060400160405280600481526020017f6d6d7369000000000000000000000000000000000000000000000000000000008152508461091a565b600a90805190602001906105919291906110d4565b506106766040518060400160405280600381526020017f6765740000000000000000000000000000000000000000000000000000000000815250600a8054600181600116156101000203166002900480601f0160208091040260200160405190810160405280929190818152602001828054600181600116156101000203166002900480156106615780601f1061063657610100808354040283529160200191610661565b820191906000526020600020905b81548152906001019060200180831161064457829003601f168201915b5050505050836109499092919063ffffffff16565b6106f56040518060400160405280600481526020017f70617468000000000000000000000000000000000000000000000000000000008152506040518060400160405280600d81526020017f7269736b526564756374696f6e00000000000000000000000000000000000000815250836109499092919063ffffffff16565b610724600660009054906101000a900473ffffffffffffffffffffffffffffffffffffffff168260085461097c565b505050505050565b600a8054600181600116156101000203166002900480601f0160208091040260200160405190810160405280929190818152602001828054600181600116156101000203166002900480156107c25780601f10610797576101008083540402835291602001916107c2565b820191906000526020600020905b8154815290600101906020018083116107a557829003601f168201915b505050505081565b60098054600181600116156101000203166002900480601f0160208091040260200160405190810160405280929190818152602001828054600181600116156101000203166002900480156108605780601f1061083557610100808354040283529160200191610860565b820191906000526020600020905b81548152906001019060200180831161084357829003601f168201915b505050505081565b600b5481565b80600990805190602001906108849291906110d4565b5050565b600c5481565b610896611067565b61089e611067565b6108b585858584610b46909392919063ffffffff16565b9150509392505050565b60606009826040516020016108d5929190611742565b6040516020818303038152906040529050919050565b6060838383604051602001610902939291906116b4565b60405160208183030381529060405290509392505050565b6060838383604051602001610931939291906116fb565b60405160208183030381529060405290509392505050565b610960828460800151610bf690919063ffffffff16565b610977818460800151610bf690919063ffffffff16565b505050565b600030600454604051602001610993929190611688565b604051602081830303815290604052805190602001209050600454836060018181525050836005600083815260200190815260200160002060006101000a81548173ffffffffffffffffffffffffffffffffffffffff021916908373ffffffffffffffffffffffffffffffffffffffff160217905550807fb5e6e01e79f91267dc17b4e6314d5d4d03593d2ceee0fbb452b750bd70ea5af960405160405180910390a2600260009054906101000a900473ffffffffffffffffffffffffffffffffffffffff1673ffffffffffffffffffffffffffffffffffffffff16634000aea08584610a7f87610c1b565b6040518463ffffffff1660e01b8152600401610a9d939291906117f6565b602060405180830381600087803b158015610ab757600080fd5b505af1158015610acb573d6000803e3d6000fd5b505050506040513d601f19601f82011682018060405250810190610aef919061121e565b610b2e576040517f08c379a0000000000000000000000000000000000000000000000000000000008152600401610b2590611871565b60405180910390fd5b60016004600082825401925050819055509392505050565b610b4e611067565b610b5e8560800151610100610cc2565b508385600001818152505082856020019073ffffffffffffffffffffffffffffffffffffffff16908173ffffffffffffffffffffffffffffffffffffffff16815250508185604001907bffffffffffffffffffffffffffffffffffffffffffffffffffffffff191690817bffffffffffffffffffffffffffffffffffffffffffffffffffffffff191681525050849050949350505050565b610c038260038351610d16565b610c168183610e5b90919063ffffffff16565b505050565b6060634042994660e01b60008084600001518560200151866040015187606001516001896080015160000151604051602401610c5e989796959493929190611771565b604051602081830303815290604052907bffffffffffffffffffffffffffffffffffffffffffffffffffffffff19166020820180517bffffffffffffffffffffffffffffffffffffffffffffffffffffffff83818316178352505050509050919050565b610cca611154565b600060208381610cd657fe5b0614610cef5760208281610ce657fe5b06602003820191505b81836020018181525050604051808452600081528281016020016040525082905092915050565b60178111610d4357610d3d8160058460ff16901b60ff161784610e7d90919063ffffffff16565b50610e56565b60ff8111610d8557610d68601860058460ff16901b1784610e7d90919063ffffffff16565b50610d7f81600185610e9d9092919063ffffffff16565b50610e55565b61ffff8111610dc857610dab601960058460ff16901b1784610e7d90919063ffffffff16565b50610dc281600285610e9d9092919063ffffffff16565b50610e54565b63ffffffff8111610e0d57610df0601a60058460ff16901b1784610e7d90919063ffffffff16565b50610e0781600485610e9d9092919063ffffffff16565b50610e53565b67ffffffffffffffff8111610e5257610e39601b60058460ff16901b1784610e7d90919063ffffffff16565b50610e5081600885610e9d9092919063ffffffff16565b505b5b5b5b5b505050565b610e63611154565b610e7583846000015151848551610ebf565b905092915050565b610e85611154565b610e958384600001515184610f78565b905092915050565b610ea5611154565b610eb6848560000151518585610fc6565b90509392505050565b610ec7611154565b8251821115610ed557600080fd5b84602001518285011115610f0057610eff856002610ef98860200151888701611027565b02611043565b5b600080865180518760208301019350808887011115610f1f5787860182525b60208701925050505b60208410610f4b5780518252602082019150602081019050602084039350610f28565b60006001856020036101000a03905080198251168184511681811785525050879350505050949350505050565b610f80611154565b83602001518310610f9d57610f9c846002866020015102611043565b5b8351805160208583010184815381861415610fb9576001820183525b5050508390509392505050565b610fce611154565b84602001518483011115610fec57610feb85600286850102611043565b5b60006001836101000a03905085518386820101858319825116178152815185880111156110195784870182525b505085915050949350505050565b6000818311156110395782905061103d565b8190505b92915050565b6060826000015190506110568383610cc2565b506110618382610e5b565b50505050565b6040518060a0016040528060008019168152602001600073ffffffffffffffffffffffffffffffffffffffff16815260200160007bffffffffffffffffffffffffffffffffffffffffffffffffffffffff19168152602001600081526020016110ce611154565b81525090565b828054600181600116156101000203166002900490600052602060002090601f016020900481019282601f1061111557805160ff1916838001178555611143565b82800160010185558215611143579182015b82811115611142578251825591602001919060010190611127565b5b509050611150919061116e565b5090565b604051806040016040528060608152602001600081525090565b5b8082111561118757600081600090555060010161116f565b5090565b60008151905061119a81611a8d565b92915050565b6000813590506111af81611aa4565b92915050565b600082601f8301126111c657600080fd5b81356111d96111d4826118d9565b6118ac565b915080825260208301602083018583830111156111f557600080fd5b6112008382846119ff565b50505092915050565b60008135905061121881611abb565b92915050565b60006020828403121561123057600080fd5b600061123e8482850161118b565b91505092915050565b6000806040838503121561125a57600080fd5b6000611268858286016111a0565b925050602061127985828601611209565b9150509250929050565b60006020828403121561129557600080fd5b600082013567ffffffffffffffff8111156112af57600080fd5b6112bb848285016111b5565b91505092915050565b600080600080608085870312156112da57600080fd5b600085013567ffffffffffffffff8111156112f457600080fd5b611300878288016111b5565b945050602085013567ffffffffffffffff81111561131d57600080fd5b611329878288016111b5565b935050604085013567ffffffffffffffff81111561134657600080fd5b611352878288016111b5565b925050606085013567ffffffffffffffff81111561136f57600080fd5b61137b878288016111b5565b91505092959194509250565b6113908161195d565b82525050565b61139f8161197b565b82525050565b6113ae81611985565b82525050565b60006113bf8261191a565b6113c98185611930565b93506113d9818560208601611a0e565b6113e281611a6f565b840191505092915050565b6113fe6113f9826119db565b611a41565b82525050565b600061140f82611925565b6114198185611941565b9350611429818560208601611a0e565b61143281611a6f565b840191505092915050565b600061144882611925565b6114528185611952565b9350611462818560208601611a0e565b80840191505092915050565b60008154600181166000811461148b57600181146114b0576114f4565b607f600283041661149c8187611952565b955060ff19831686528086019350506114f4565b600282046114be8187611952565b95506114c985611905565b60005b828110156114eb578154818901526001820191506020810190506114cc565b82880195505050505b505092915050565b6000611509602383611941565b91507f756e61626c6520746f207472616e73666572416e6443616c6c20746f206f726160008301527f636c6500000000000000000000000000000000000000000000000000000000006020830152604082019050919050565b600061156f600183611952565b91507f3f000000000000000000000000000000000000000000000000000000000000006000830152600182019050919050565b60006115af600183611952565b91507f26000000000000000000000000000000000000000000000000000000000000006000830152600182019050919050565b60006115ef600183611952565b91507f3d000000000000000000000000000000000000000000000000000000000000006000830152600182019050919050565b600061162f600183611952565b91507f2f000000000000000000000000000000000000000000000000000000000000006000830152600182019050919050565b61166b816119d1565b82525050565b61168261167d826119d1565b611a65565b82525050565b600061169482856113ed565b6014820191506116a48284611671565b6020820191508190509392505050565b60006116c0828661143d565b91506116cb82611562565b91506116d7828561143d565b91506116e2826115e2565b91506116ee828461143d565b9150819050949350505050565b6000611707828661143d565b9150611712826115a2565b915061171e828561143d565b9150611729826115e2565b9150611735828461143d565b9150819050949350505050565b600061174e828561146e565b915061175982611622565b9150611765828461143d565b91508190509392505050565b600061010082019050611787600083018b611387565b611794602083018a611662565b6117a16040830189611396565b6117ae6060830188611387565b6117bb60808301876113a5565b6117c860a0830186611662565b6117d560c0830185611662565b81810360e08301526117e781846113b4565b90509998505050505050505050565b600060608201905061180b6000830186611387565b6118186020830185611662565b818103604083015261182a81846113b4565b9050949350505050565b60006020820190506118496000830184611396565b92915050565b600060208201905081810360008301526118698184611404565b905092915050565b6000602082019050818103600083015261188a816114fc565b9050919050565b60006020820190506118a66000830184611662565b92915050565b6000604051905081810181811067ffffffffffffffff821117156118cf57600080fd5b8060405250919050565b600067ffffffffffffffff8211156118f057600080fd5b601f19601f8301169050602081019050919050565b60008190508160005260206000209050919050565b600081519050919050565b600081519050919050565b600082825260208201905092915050565b600082825260208201905092915050565b600081905092915050565b6000611968826119b1565b9050919050565b60008115159050919050565b6000819050919050565b60007fffffffff0000000000000000000000000000000000000000000000000000000082169050919050565b600073ffffffffffffffffffffffffffffffffffffffff82169050919050565b6000819050919050565b60006119e6826119ed565b9050919050565b60006119f8826119b1565b9050919050565b82818337600083830152505050565b60005b83811015611a2c578082015181840152602081019050611a11565b83811115611a3b576000848401525b50505050565b6000611a4c82611a53565b9050919050565b6000611a5e82611a80565b9050919050565b6000819050919050565b6000601f19601f8301169050919050565b60008160601b9050919050565b611a968161196f565b8114611aa157600080fd5b50565b611aad8161197b565b8114611ab857600080fd5b50565b611ac4816119d1565b8114611acf57600080fd5b5056fea2646970667358221220c9c79c9b1e3142214735b673af47427f69d87f98448d955dcfc57b81a0c94fe164736f6c634300060c0033",
  "immutableReferences": {},
  "source": "pragma solidity ^0.6.0;\npragma experimental ABIEncoderV2;\n\nimport \"@chainlink/contracts/src/v0.6/ChainlinkClient.sol\";\n// import \"https://raw.githubusercontent.com/smartcontractkit/chainlink/develop/evm-contracts/src/v0.6/ChainlinkClient.sol\";\n\n/// SPDX-License-Identifier: MIT\n\ncontract Vessels is ChainlinkClient {\n    address private oracle;\n    bytes32 private jobId;\n    uint256 private fee;\n\n    string public API_URL;\n    string public full_URL;\n    //mapping(bytes32 => uint256) public riskScore_from;\n    bytes32 public reqId;\n    uint256 public riskReduction;\n\n    address linkTokenAddress;\n\n    /*\n        _oracle = 0x56dd6586DB0D08c6Ce7B2f2805af28616E082455;\n        _jobId = \"c128fbb0175442c8ba828040fdd1a25e\";\n        _API_URL = https://payid.trade:4000;\n    */\n    constructor()\n    public {\n    \tsetPublicChainlinkToken();\n    \toracle = 0x56dd6586DB0D08c6Ce7B2f2805af28616E082455; // oracle address\n    \tjobId = \"b6602d14e4734c49a5e1ce19d45a4632\";\n    \tAPI_URL = \"http://payid.trade:4000\";\n    \tfee = 0.1 * 10 ** 18; // 0.1 LINK\n    \t///uint256 initialFunding = fee * 10;\n    /*\n    \tlinkTokenAddress = chainlinkTokenAddress();\n    \tLinkTokenInterface link =  LinkTokenInterface(linkTokenAddress);\n    \tlink.approve(msg.sender, initialFunding);\n    \tlink.transferFrom(msg.sender, address(this), initialFunding);\n    */\n    }\n\n    function evalRiskScore(\n        string memory portOfOrigin,\n        string memory portOfDestination,\n        string memory loanDuration,\n        string memory mmsi\n    )\n    public {\n    \tChainlink.Request memory req = buildChainlinkRequest(\n    \t    jobId,\n    \t    address(this),\n    \t    this.fulfill.selector\n    \t);\n    \tfull_URL = appendPath(\"vessel\");\n    \tfull_URL = appendFirstParam(full_URL, \"portOfOrigin\", portOfOrigin);\n    \tfull_URL = appendParam(full_URL, \"portOfDestination\", portOfDestination);\n    \tfull_URL = appendParam(full_URL, \"loanDuration\", loanDuration);\n    \tfull_URL = appendParam(full_URL, \"mmsi\", mmsi);\n    \treq.add(\"get\", full_URL);\n    \treq.add(\"path\", \"riskReduction\");\n    \tsendChainlinkRequestTo(oracle, req, fee);\n    }\n\n    function fulfill(bytes32 _requestId, uint256 response)\n\n    public {\n        reqId = _requestId;\n        riskReduction = response;\n    }\n\n    function setAPI_URL(string memory URL)\n    public {\n    \tAPI_URL = URL;\n    }\n\n    function appendPath(string memory endpoint)\n    private view returns (string memory) {\n        return string(abi.encodePacked(API_URL,\"/\",endpoint));\n    }\n\n    function appendFirstParam(string memory URL_withEndpoint, string memory paramKey, string memory paramVal)\n    private pure returns (string memory) {\n        return string(abi.encodePacked(URL_withEndpoint,\"?\",paramKey,\"=\",paramVal));\n    }\n\n    function appendParam(string memory URL_withFirstPram, string memory paramKey, string memory paramVal)\n    private pure returns (string memory) {\n        return string(abi.encodePacked(URL_withFirstPram,\"&\",paramKey,\"=\",paramVal));\n    }\n}\n",
  "sourcePath": "/home/carlos/gitrepos/TrafiGuard/contracts/Tradeora Contracts/Vessels.sol",
  "compiler": {
    "name": "solc",
    "version": "0.6.12+commit.27d51765.Emscripten.clang"
  },
  "schemaVersion": "3.2.5",
  "updatedAt": "2020-10-22T06:09:42.850Z",
  "networkType": "ethereum",
  "devdoc": {
    "kind": "dev",
    "methods": {},
    "version": 1
  },
  "userdoc": {
    "kind": "user",
    "methods": {},
    "notice": "SPDX-License-Identifier: MIT",
    "version": 1
  }
}